:020000040000FA
:100000000C945E000C9486000C9486000C94860080
:100010000C9486000C9486000C9486000C94860048
:100020000C9486000C9486000C9486000C94860038
:100030000C9486000C9486000C9486000C94860028
:100040000C94680B0C9486000C94D80B0C94B20B97
:100050000C9486000C9486000C9486000C94860008
:100060000C940A0C0C9486000000000800020100A9
:100070000003040700000000000000000000000072
:10008000250028002B0000000000240027002A0083
:10009000040404040404040402020202020203032E
:1000A0000303030301020408102040800102040836
:1000B0001020010204081020290DEB0F11241FBE8F
:1000C000CFEFD8E0DEBFCDBF11E0A0E0B1E0EEE0C1
:1000D000F7E202C005900D92AA3BB107D9F723E0E1
:1000E000AAEBB1E001C01D92A235B207E1F710E022
:1000F000CDE5D0E004C02197FE010E944F12CC351F
:10010000D107C9F70E948E0D0C947A130C9400004D
:100110008230910538F0880F991F880F991F059735
:100120000197F1F7089590E0FC01EC55FF4F249101
:1001300080579F4FFC018491882399F090E0880FAD
:10014000991FFC01EA57FF4FA591B491FC01E458B7
:10015000FF4F859194918FB7F894EC91E22BEC933B
:100160008FBF08950895089590E0FC01E859FF4F6E
:100170002491FC01EC55FF4F3491FC01E057FF4FF7
:10018000E491EE23C9F0222339F0233001F1A8F4E1
:10019000213019F1223029F1F0E0EE0FFF1FE45871
:1001A000FF4FA591B4918FB7F894EC91611126C0DF
:1001B00030953E233C938FBF08952730A9F0283017
:1001C000C9F0243049F7809180008F7D03C0809171
:1001D00080008F7780938000DFCF84B58F7784BDD8
:1001E000DBCF84B58F7DFBCF8091B0008F7780937C
:1001F000B000D2CF8091B0008F7DF9CF3E2BDACF07
:100200003FB7F8948091230290912402A091250297
:10021000B091260226B5A89B05C02F3F19F0019684
:10022000A11DB11D3FBFBA2FA92F982F8827BC0150
:10023000CD01620F711D811D911D42E0660F771F78
:10024000881F991F4A95D1F708958F929F92AF9278
:10025000BF92CF92DF92EF92FF924B015C010E941E
:1002600000016B017C010E9400016C197D098E095F
:100270009F09683E734081059105A8F321E0821A29
:100280009108A108B10888EEC80E83E0D81EE11CD1
:10029000F11C81149104A104B10429F7FF90EF909F
:1002A000DF90CF90BF90AF909F908F900895AF92C6
:1002B000BF92CF92DF92EF92FF920F931F93CF9353
:1002C000DF936C017B018B01040F151FEB015E01B5
:1002D000AE18BF08C017D10759F06991D601ED914A
:1002E000FC910190F081E02DC6010995892B79F7E9
:1002F000C501DF91CF911F910F91FF90EF90DF909B
:10030000CF90BF90AF900895FC01538D448D252F61
:1003100030E0842F90E0821B930B541710F0CF969F
:10032000089501970895FC01918D828D981761F0D1
:10033000A28DAE0FBF2FB11D5D968C91928D9F5FE8
:100340009F73928F90E008958FEF9FEF0895FC01C7
:10035000918D828D981731F0828DE80FF11D858D7A
:1003600090E008958FEF9FEF0895FC01918D228D0D
:10037000892F90E0805C9F4F821B91098F73992792
:1003800008958DE792E00E94B50121E0892B09F4E0
:1003900020E0822F089580E090E0892B29F00E94D0
:1003A000C10181110C9400000895FC01A48DA80FD7
:1003B000B92FB11DA35ABF4F2C91848D90E00196A7
:1003C0008F739927848FA689B7892C93A089B189C7
:1003D0008C91837080648C93938D848D981306C068
:1003E0000288F389E02D80818F7D80830895EF92CC
:1003F000FF920F931F93CF93DF93EC0181E0888FDF
:100400009B8D8C8D98131AC0E889F989808185FFAE
:1004100015C09FB7F894EE89FF896083E889F98950
:1004200080818370806480839FBF81E090E0DF9152
:10043000CF911F910F91FF90EF900895F62E0B8DA5
:1004400010E00F5F1F4F0F731127E02E8C8D8E1160
:100450000CC00FB607FCFACFE889F989808185FFC7
:10046000F5CFCE010E94D501F1CFEB8DEC0FFD2F22
:10047000F11DE35AFF4FF0829FB7F8940B8FEA8982
:10048000FB8980818062CFCFCF93DF93EC01888D91
:100490008823B9F0AA89BB89E889F9898C9185FDFF
:1004A00003C0808186FD0DC00FB607FCF7CF8C918D
:1004B00085FFF2CF808185FFEDCFCE010E94D5016F
:1004C000E9CFDF91CF9108950895FC0183858F3F97
:1004D00019F061E00C94B4000895FC0180819181D1
:1004E000892B39F0A281B3819C9111968C919CBD8E
:1004F0008DBD83858F3F19F060E00C94B4000895A2
:10050000AF92BF92CF92DF92EF92FF920F931F9321
:10051000CF93DF93EC0188819981892B89F06EBD9F
:100520000DB407FEFDCFBEB48B2DDF91CF911F918F
:100530000F91FF90EF90DF90CF90BF90AF90089514
:100540008885998511E0892B09F010E8AA24A394E5
:10055000862F812309F0A12C062F2C813D814E810D
:100560005F8160E271EA87E090E00E942D12F22E36
:10057000B02EE12CC22ED12CFF2019F0C6010E9412
:1005800088008A85877F09F042C08D858F3F89F07A
:10059000902F912381E009F480E08A1551F0EF85D6
:1005A000F8898F89992369F19081892B8083AA2406
:1005B000A394E989FA898081998D892B8083FF2012
:1005C00019F0C6010E9488008E858F3F39F0EB89B3
:1005D000FC898081988D892309F0E12AE989FA89CB
:1005E0009081898D8095892380838E858F3F09F046
:1005F000BE2C88859985892BB9F5110F1111BCCFB7
:1006000093CF9081809589238083A12CD2CFE989D3
:10061000FA898081998D892B8083FF2019F0C6018A
:100620000E9488008D858F3F49F0EF85F8898F897A
:10063000902F9123A9F09081892B8083E989FA89F1
:100640009081898D8095892380838E858F3F69F283
:10065000EB89FC898081988D892339F2E12AC5CF05
:10066000908180958923E9CF1695C8CF8F929F926C
:10067000AF92BF92CF92DF92EF92FF920F931F93B0
:10068000CF93DF937C014B016A01B22EA32E0E940F
:100690006D02E401C80CD91CCC15DD0569F4CB2D25
:1006A000DA2D0C0F1D1FC017D10759F06FEFC701CE
:1006B0000E9480028993F7CF6991C7010E9480024E
:1006C000EBCFC7010E94650281E0DF91CF911F91BE
:1006D0000F91FF90EF90DF90CF90BF90AF909F90E1
:1006E0008F9008958F929F92AF92BF92CF92DF9298
:1006F000EF92FF920F931F93CF93DF937C01B62E5F
:10070000A72E6A0149010E946D02E401080D191D1E
:10071000C017D10761F4CB2DDA2DCC0EDD1ECC1520
:10072000DD0551F06991C7010E948002F8CF6991FF
:10073000C7010E948002ECCFC7010E94650281E0E0
:10074000DF91CF911F910F91FF90EF90DF90CF90AD
:10075000BF90AF909F908F9008952091DB01260F5E
:100760003327331F21323105ECF420915302FC0171
:1007700090E080E0243069F082E00895A091DB01F0
:100780002191AC0145545E4FA40FB52FB11D2C93A0
:100790000196861798F38091DB01680F6093DB0167
:1007A00080E0089581E008951092530281E08093E3
:1007B000520210922D0261E082E10E94B40061E0D9
:1007C00083E10E94B400E9EBF0E080818E7F8083BA
:1007D00080818D7F808388E48093B80085E4809356
:1007E000BC00089510922C0210922B0210925A0213
:1007F00010927C020E94D40382EB90E090932A0234
:100800008093290283EB90E0909328028093270243
:100810000895CF93DF9391E09093BA018823B9F0C4
:10082000C091B800D091BA008091BC008A7B8093BF
:10083000BC0060E082E10E94B40060E083E10E94BD
:10084000B4000E94D403D093BA00C093B800DF91E3
:10085000CF9108958F929F92AF92BF92CF92DF92E5
:10086000EF92FF920F931F93CF93DF93D0917C026F
:10087000D13208F0D7C0182FC0917B020E9400012E
:100880006B017C018091530281116BC082E08093E7
:100890005302109352028FEF809351021092500234
:1008A000D0934F02ABE5B2E0EFE2F2E080E0D81384
:1008B00091C010922E0280912E02CC0FC82BC093B3
:1008C0002E0280912D02813009F088C010922D02F5
:1008D0000E9400016B017C0180912E028093BB007D
:1008E0008091550290915602A0915702B091580202
:1008F000892B8A2B8B2BA1F00E94000100915502BD
:100900001091560220915702309158026C197D09BE
:100910008E099F09061717072807390708F442C0F0
:100920008091BC0083FDD8CF85EC8093BC000E94F1
:1009300000016B017C0180915302823009F450C0A8
:10094000809151028F3F09F46FC080915102803233
:1009500009F46CC080915102803309F469C084E0CD
:1009600026C08091550290915602A0915702B091F5
:100970005802892B8A2B8B2B09F484CF0E9400010B
:100980008090550290905602A0905702B090580265
:100990006C197D098E099F0986169706A806B90667
:1009A00008F070CF809154020E94090485E01092F3
:1009B0005A0210927C0210925902DF91CF911F913E
:1009C0000F91FF90EF90DF90CF90BF90AF909F90EE
:1009D0008F9008959D9191938F5F69CF85EEA5CFFC
:1009E0008091550290915602A0915702B091580201
:1009F000892B8A2B8B2B09F49ECF0E94000100913A
:100A000055021091560220915702309158026C19EC
:100A10007D098E099F09061717072807390708F06F
:100A20008ACFC0CF81E0C3CF80E0C1CF82E0BFCF0B
:100A300083E0BDCF1F93CF93DF93EA01122FDC0138
:100A400011968D919C91DC01ED91FC910280F381D6
:100A5000E02D0995C817D90729F4812F0E942A048F
:100A600091E0811190E0892FDF91CF911F9108953E
:100A7000CF92DF92EF92FF920F931F93CF93DF936A
:100A800000D0CDB7DEB7DC0151964D935D936D93E9
:100A90007C9354971C968C911C978823C1F11E96C9
:100AA0004C931E97452F562F672F7727882399F150
:100AB0001D964C931D977D018DE0E80EF11C189654
:100AC0009C91189719968C91199799838A83CD9048
:100AD000DC901197C114D10409F448C01B960C9105
:100AE00010E098012E5F3F4FD60114968D919C9196
:100AF00082179307A0F480E00F900F90DF91CF91C1
:100B00001F910F91FF90EF90DF90CF9008951D9669
:100B10004C931D97C7CF1E964C931E97CCCFF601D2
:100B200081819281208131E03093590220937B02B0
:100B300010925A0210927C020115110541F421E035
:100B400042E050E0B701C6010E941A05D5CFDC0192
:100B5000ED91FC910280F381E02DA801BE016F5F51
:100B60007F4F09950817190731F6E9CF1296ED91D5
:100B7000FC911397309751F116962D913C91179750
:100B80001B960C9110E02330310579F48E7F898318
:100B90009A830F5F1F4F9E012F5F3F4F42E050E04F
:100BA000B701CF010E947203A7CF2115310519F4B7
:100BB0009F779983F0CF2230310511F49068F9CFF7
:100BC0002130310541F79F779064F3CF1496ED9172
:100BD000FC911597309709F48ECF8085882309F40E
:100BE0008ACFC680D780C114D10409F484CF02E033
:100BF00010E097011B964C91BE016F5F7F4F81857E
:100C00009285F601099578CFCF93DF93EC018B8124
:100C10008823A1F0888191E09093590280937B0210
:100C200010925A0210927C0281E00E942A0491E004
:100C3000811190E0892FDF91CF9108950E94F203F6
:100C400081E08B83CE010E940406982F8111E2CFB0
:100C5000F1CF0895E0912C0280912B02E81730F437
:100C6000F0E0E250FE4F808190E008958FEF9FEF1B
:100C7000089590912C0280912B022FEF3FEF98174F
:100C800048F4E92FF0E0E250FE4F208130E09F5F12
:100C900090932C02C901089580912B0290912C020F
:100CA000891B990B0895CF92DF92EF92FF920F93D9
:100CB0001F93CF93DF937C01CB018A0120915902CE
:100CC000222389F0EB016B01C40ED51ECC15DD0586
:100CD00069F06991D701ED91FC910190F081E02DCF
:100CE000C7010995F3CF642F0E94AD03C801DF91BE
:100CF000CF911F910F91FF90EF90DF90CF900895CB
:100D0000CF93DF931F92CDB7DEB76983209159024D
:100D10002223F9F020917C02203258F021E030E0CB
:100D2000FC013383228390E080E00F90DF91CF912C
:100D3000089580915A02E82FF0E0E55AFD4F99811D
:100D400090838F5F80935A0280937C0281E090E0D1
:100D5000ECCF61E0CE0101960E94AD03F7CF90E0A9
:100D600080E00895CF93DF93EC0160E08E810E94D4
:100D7000B40061E08E810E94B40060E08E810E9428
:100D8000B4008BE891E00197F1F7DF91CF910895DE
:100D9000CF92DF92EF92FF920F931F93CF93DF9347
:100DA0006C017C0187E0E80EF11CD0E0C0E0062F6A
:100DB00010E0B8010C2E02C0759567950A94E2F711
:100DC0006170F70181917F010E94B4002196C430C7
:100DD000D10579F7C601DF91CF911F910F91FF9057
:100DE000EF90DF90CF900C94B206CF92DF92EF920B
:100DF000FF920F931F93CF93DF93EC01F62E642F96
:100E00008C810E94B4008D818F3F19F060E00E94B8
:100E1000B4000F2D10E08F8584FF25C06E0187E0A0
:100E2000C80ED11CF12CE12CB8010E2C02C0759516
:100E300067950A94E2F76170F60181916F010E9453
:100E4000B400FFEFEF1AFF0A88E0E816F10461F73B
:100E5000CE01DF91CF911F910F91FF90EF90DF9026
:100E6000CF900C94B206B80184E0759567958A9589
:100E7000E1F7CE010E94C8066F2DCE01DF91CF9120
:100E80001F910F91FF90EF90DF90CF900C94C806C8
:100E900040E0682F86E393E00C94F50681E00E9421
:100EA00048078BE39FE10197F1F70895CF93DF9314
:100EB000813029F090914503986090934503809389
:100EC000490310924A0380E480934B0380E18093AE
:100ED0004C0380E580934D0380913A030E94930078
:100EE00080913B038F3F11F00E94930080913C035F
:100EF0000E949300C6E3D3E09E01265333408091C5
:100F0000450384FD0AC084E090E021962817390744
:100F10003CF48E810E949300EFCF88E090E0F5CF03
:100F20008BE39DE00197F1F760E080913A030E9426
:100F3000B40060E080913C030E94B40080913B03C8
:100F40008F3F19F060E00E94B4008091450384FD5A
:100F500034C063E086E393E00E94C806CBE4D6E4A5
:100F6000CE010197F1F763E086E393E00E94C806A3
:100F70002197F1F763E086E393E00E94C80683E5DA
:100F800092E00197F1F762E086E393E00E94C806E1
:100F90008091450380620E94480784E08093460365
:100FA0008CE00E9448070E944E0782E0809347032E
:100FB00086E0DF91CF910C94480780620E94480739
:100FC0008BE496E40197F1F78091450380620E94DB
:100FD000480783E592E00197F1F78091450380622D
:100FE0000E944807D5CF90914903891710F08FEFE1
:100FF000890FE82FF0E0EA5CFC4F848980680C944C
:10100000480741E00E94F50681E090E008952F92A4
:101010003F924F925F926F927F928F929F92AF9288
:10102000BF92CF92DF92EF92FF920F931F93CF93D5
:10103000DF9300D000D000D0CDB7DEB77C017E8337
:101040006D830D969C838B83D70118969C9118977E
:1010500019968C91199799838A83CD90DC9011977A
:10106000C114D10409F450C11B964C9150E0F60113
:101070008481958184179507A8F0808191E09093F1
:10108000590280937B0210925A0210927C0220E057
:10109000BE016F5F7F4FC6010E941A05712C612C43
:1010A00081111AC080E026960FB6F894DEBF0FBEFD
:1010B000CDBFDF91CF911F910F91FF90EF90DF9007
:1010C000CF90BF90AF909F908F907F906F905F90E8
:1010D0004F903F902F900895D60114968D919C913A
:1010E00002E010E0061917098017910708F48C0137
:1010F000F60150800E9400014B015C018091530277
:10110000811176C0B02EF0E2F01710F440E2B42E58
:1011100081E08093530221E082E090E0801B910BFC
:101120006816790608F420E0209352029FEF90930E
:101130005102109250028FEF8B0D80934F02A1E06D
:10114000A0932E0280912E02550C582A50922E0206
:1011500080912D02813009F093C010922D020E94DF
:1011600000011B012C0180912E028093BB00809115
:10117000550290915602A0915702B0915802892BC6
:101180008A2B8B2BA1F00E940001209155023091F7
:10119000560240915702509158026219730984090E
:1011A0009509261737074807590708F442C0809168
:1011B000BC0083FDD8CFB5ECB093BC000E94000109
:1011C0001B012C0180915302813009F45DC0809194
:1011D00050028B1510F4B0905002AFE2B2E0EEEF87
:1011E000F1E080E08B1551F19D9191938F5FFACFE3
:1011F0008091550290915602A0915702B0915802E9
:10120000892B8A2B8B2B09F479CF0E940001209126
:101210005502309156024091570250915802681978
:1012200079098A099B09261737074807590708F0E3
:1012300065CF809154020E940904B12C10922C02B7
:10124000B0922B02B016110609F02CCF8B809C8037
:10125000860C971C5401C5018819990980179107BC
:10126000A8F5D60111968D919C91DC01ED91FC9130
:101270000284F385E02D0995F50181935F01EBCFA1
:10128000E5EEE093BC009ACF809155029091560212
:10129000A0915702B0915802892B8A2B8B2B09F40D
:1012A00091CF0E9400012091550230915602409149
:1012B000570250915802621973098409950926173B
:1012C00037074807590708F07DCFB3CF600E711E6E
:1012D000F2E06F16710408F4FFCED7011C968C91D2
:1012E0001C97811165C01E968C911E9790E0982FD7
:1012F0008827ED81FE81918380831D962C91822B1E
:101300009183808381E0CFCE1296ED91FC9113976B
:10131000309761F116962D913C9117971B964C9141
:1013200050E02330310591F4816089839A834F5FC7
:101330005F4F02E010E02B813C81BE016F5F7F4F69
:10134000CF010E9436038111C8CFADCE21153105E2
:1013500019F490689983EDCF2230310511F49F770D
:10136000F9CF2130310529F7906CF4CFF701A48132
:10137000B581109709F496CE18968C91189788230A
:1013800009F490CE1496CD90DC901597C114D10439
:1013900009F488CE02E010E02B813C814385BE0138
:1013A0006F5F7F4F19968D919C91F6010995CBCF78
:1013B0001D968C911D9790E0982F8827ED81FE81D6
:1013C000918380831E962C919ACFFB01019000207F
:1013D000E9F73197AF01461B570BDC01ED91FC910A
:1013E0000280F381E02D09948F929F92AF92BF9279
:1013F000EF92FF920F931F93CF93DF93CDB7DEB79A
:10140000A1970FB6F894DEBF0FBECDBF7C01FA01E5
:10141000CB0119A2223008F42AE08E010F5D1F4F84
:10142000822E912CB12CA12CBF01A50194010E9408
:101430002D12F901CA016A300CF5605DD8016E9376
:101440008D01232B242B252B79F790E080E010973A
:1014500021F0BD01C7010E94E509A1960FB6F894DD
:10146000DEBF0FBECDBFDF91CF911F910F91FF90D7
:10147000EF90BF90AF909F908F900895695CDECF02
:101480002F923F924F925F926F927F928F929F9294
:10149000AF92BF92CF92DF92EF92FF921F93CF93C2
:1014A000DF93EC016A017B01722EAB019601CB0147
:1014B000B6010E94281266E371E0811126C0460140
:1014C0005701E894B7F82FEF3FEF4FE75FE7C5010B
:1014D000B4010E94281281110CC02FEF3FEF4FE79B
:1014E0005FE7C501B4010E945E106AE371E018165F
:1014F00064F02FEF3FEF4FE75FE4C701B6010E94B2
:10150000B6111816B4F46EE371E0CE01DF91CF91FD
:101510001F91FF90EF90DF90CF90BF90AF909F9082
:101520008F907F906F905F904F903F902F900C9492
:10153000E5092FEF3FEF4FE75FECC701B6010E94CF
:101540005E1087FDE0CF20E030E0A901C701B601C1
:101550000E945E10312C212C87FF0DC0E881F9819B
:101560000190F081E02D6DE2CE0109951C01F7FAA2
:10157000F094F7F8F09410E060E070E080E09FE312
:10158000711641F020E030E040E251E40E94631027
:101590001F5FF6CFA70196010E94F20F2B013C01BD
:1015A0000E94D5104B015C012AE0BC01A401CE01D0
:1015B0000E94F4097C01E20CF31C1123E1F1C50146
:1015C000B4010E9404119B01AC01C301B2010E944D
:1015D000F10F4B015C01E881F9810190F081E02D70
:1015E0006EE2CE010995E80EF91E115020F120E0BF
:1015F00030E040E251E4C501B4010E94BB112B016F
:101600003C010E94D5104B01B12CA12C2AE0B50160
:10161000A401CE010E94F409E80EF91EC501B4012F
:101620000E9404119B01AC01C301B2010E94F10FA1
:101630004B015C01DACFC701DF91CF911F91FF9081
:10164000EF90DF90CF90BF90AF909F908F907F9062
:101650006F905F904F903F902F9008950C94E50904
:1016600085ED8093BC008091550290915602A09127
:101670005702B09158020796A11DB11D23E0B695FF
:10168000A795979587952A95D1F72091BC0024FDC1
:1016900003C0109253020895409155025091560292
:1016A0006091570270915802452B462B472B69F3E6
:1016B0000097A105B10541F02AE22A95F1F700C093
:1016C0000197A109B109E1CF809154020C9409045A
:1016D0001F920F920FB60F9211242F933F938F9367
:1016E0009F93AF93BF9380911F0290912002A0918E
:1016F0002102B091220230911E0223E0230F2D37E8
:1017000058F50196A11DB11D20931E0280931F0262
:1017100090932002A0932102B09322028091230291
:1017200090912402A0912502B09126020196A11D5C
:10173000B11D8093230290932402A0932502B093BD
:101740002602BF91AF919F918F913F912F910F9062
:101750000FBE0F901F90189526E8230F0296A11D2B
:10176000B11DD2CF1F920F920FB60F9211242F935B
:101770003F934F935F936F937F938F939F93AF9319
:10178000BF93EF93FF938DE792E00E94D501FF9105
:10179000EF91BF91AF919F918F917F916F915F91E9
:1017A0004F913F912F910F900FBE0F901F90189562
:1017B0001F920F920FB60F9211242F938F939F9326
:1017C000EF93FF93E0918D02F0918E028081E09182
:1017D0009302F091940282FD1BC090818091960249
:1017E0008F5F8F7320919702821741F0E0919602EC
:1017F000F0E0E358FD4F958F80939602FF91EF91B3
:101800009F918F912F910F900FBE0F901F90189561
:101810008081F4CF1F920F920FB60F9211242F9355
:101820003F934F935F936F937F938F939F93AF9368
:10183000BF93EF93FF938091B900887F803609F4BE
:101840004AC0F0F5883209F4A7C018F5803109F4D0
:101850009BC0B8F4882309F4F9C0883009F494C017
:10186000FF91EF91BF91AF919F918F917F916F9178
:101870005F914F913F912F910F900FBE0F901F904E
:101880001895883109F488C0803251F7809351024D
:1018900014C0803409F49DC040F48033B9F3883318
:1018A000F9F68093510285ECB0C0803509F485C00B
:1018B000883509F496C0883499F60E94300BD0CF51
:1018C000883909F48CC038F5883729F050F4883607
:1018D00011F0803729F683E0809353021092FD01C6
:1018E00057C0883809F47BC0803919F0803809F076
:1018F000B7CF8091FD01803208F071C0E091FD0109
:1019000081E08E0F8093FD018091BB00F0E0E352F7
:10191000FE4F80833DC0803B39F0E0F4803A09F40B
:1019200079C0883A09F09CCF84E0809353021092EA
:10193000DC011092DB01E0912902F0912A02099565
:101940008091DB0181110FC081E08093DB01109257
:10195000BB0109C0803C09F4A6CF883C09F4A3CFA1
:10196000883B09F07DCFE091DC0181E08E0F809310
:10197000DC01F0E0E554FE4F80818093BB00909144
:10198000DC018091DB0129C080912E028093BB0095
:1019900085EC8093BC0064CF9091500280914F02FF
:1019A000981758F5E091500281E08E0F8093500215
:1019B000F0E0E15DFD4F8081E9CFE091500281E0F0
:1019C0008E0F809350028091BB00F0E0E15DFD4FEF
:1019D00080839091500280914F029817C8F285E859
:1019E000D8CFE091500281E08E0F80935002809119
:1019F000BB00F0E0E15DFD4F8083809152028111D8
:101A00005CCF81E080932D0284EA8093BC00109229
:101A1000530226CF85EC8093BC0010925302809134
:101A2000FD01803230F4E091FD01F0E0E352FE4F21
:101A300010826091FD0170E0E0912702F091280290
:101A40008DED91E009951092FD010ACF109251029F
:101A500034CFEDE7F2E01382128288EE93E0A0E04B
:101A6000B0E084839583A683B7832AE031E0318395
:101A7000208325EC30E03587248724EC30E037875D
:101A8000268720EC30E0318B208B21EC30E0338B4B
:101A9000228B22EC30E0358B248B26EC30E0378B28
:101AA000268B118E128E138E148EEAE1F3E01382D0
:101AB000128284839583A683B7838CE191E091831E
:101AC0008083E6E3F3E0138212828EE291E0918359
:101AD000808382E084838FEF858383E0868384E044
:101AE000878385E0808786E0818787E08287138609
:101AF000148615861686178681E00E945607E6E250
:101B0000F3E01182108280E48383108611861286AE
:101B1000138614861586168617860895CF93DF934D
:101B2000CDB7DEB7AA970FB6F894DEBF0FBECDBF14
:101B3000789484B5826084BD84B5816084BD85B5A8
:101B4000826085BD85B5816085BD80916E008160B4
:101B500080936E001092810080918100826080935A
:101B6000810080918100816080938100809180005C
:101B70008160809380008091B10084608093B10087
:101B80008091B00081608093B00080917A00846081
:101B900080937A0080917A00826080937A008091AD
:101BA0007A00816080937A0080917A0080688093C7
:101BB0007A001092C100E0918D02F0918E0282E0D5
:101BC0008083E0918902F0918A021082E0918B0279
:101BD000F0918C028FEC808310929502E09191023B
:101BE000F091920286E08083E0918F02F091900262
:101BF000808180618083E0918F02F09190028081EA
:101C000088608083E0918F02F091900280818068EB
:101C10008083E0918F02F091900280818F7D80839C
:101C20000E94F20384E00E94560780E00E94F307BE
:101C300062E471E086E393E00E942E0B60ED77E0B2
:101C400080E090E00E9425010E944E0780912603CB
:101C500090912703892BA9F486E090E00E94551209
:101C6000FC018091290380838AE193E09283818340
:101C7000138280E290E095838483F0932703E093BE
:101C80002603E0902603F09027030E94F20311E060
:101C9000F7011383C7010E940406811109C00E9445
:101CA000F3076DE471E086E393E00E942E0BFFCF13
:101CB00080E090E1A0E0B0E080932A0390932B03B2
:101CC000A0932C03B0932D038AE090E0A0E0B0E055
:101CD00080932E0390932F03A0933003B09331038E
:101CE00080E090E0A0E0B0E480933203909333036F
:101CF000A0933403B093350380912603909127037A
:101D00001FA218A619A61AA69F8B8E8B198E188E45
:101D100019A385E090E09F8F8E8F1AA302E008A39D
:101D200040E050E160E070E0CE0146960E94380548
:101D300080912603909127031A8A1B8A1C8A1D8A88
:101D40009A8389831C821B821C871A8619861D87A9
:101D50000B874FE959E360E070E0CE0101960E94E5
:101D600038058093280380E00E94F30761E671E064
:101D700086E393E00E942E0B6CED75E080E090E02E
:101D80000E9425010E944E0711E022242394312C49
:101D900080912603909127031A8A1B8A1C8A1D8A28
:101DA0009A8389831C821B821C873A8629861D8719
:101DB0000B87BE016A5E7F4FCE0101960E94070825
:101DC000809328036E897F89072E000C880B990B5E
:101DD0000E9406112AE037ED43E25CE30E94BB114A
:101DE0006B017C0180912603909127031A8A1B8A3C
:101DF0001C8A1D8A9A8389831C821B821C8782E02D
:101E000090E09A8789871D870B87BE016A5E7F4FA6
:101E1000CE0101960E940708809328036E897F896E
:101E200083E0769567958A95E1F7660F771F660FD1
:101E3000771F072E000C880B990B0E9406112FE6C6
:101E400032E143E85AE30E94BB112B013C0120E040
:101E500030E04AE754E4C701B6010E9463109B01D9
:101E6000AC01C301B2010E94F20F2B013C012AE038
:101E700037ED43E25CE3C701B6010E9463106B01DA
:101E80007C0120E030E04AE754E40E946310A301A3
:101E900092010E94BB114B015C010E944E0780E041
:101EA0000E94F3076EE671E086E393E00E942E0B3A
:101EB00022E0B301A20186E393E00E94400A62E7B8
:101EC00071E086E393E00E942E0B81E00E94F3070D
:101ED00065E771E086E393E00E942E0B23E0B701F3
:101EE000A60186E393E00E94400A69E771E086E379
:101EF00093E00E942E0B82E00E94F3076DE771E0F1
:101F000086E393E00E942E0B20E030E04AE754E4A1
:101F1000C501B4010E946310AB01BC0123E086E35C
:101F200093E00E94400A61E871E086E393E00E943A
:101F30002E0B64E871E08DE792E00E942E0B22E008
:101F4000B301A2018DE792E00E94400A6EE871E0C1
:101F50008DE792E00E942E0B64E971E08DE792E03C
:101F60000E942E0B22E0B701A6018DE792E00E94AD
:101F7000400A60EA71E08DE792E00E942E0B67EA6A
:101F800071E08DE792E00E942E0B22E0B501A401E2
:101F90008DE792E00E94400A62EB71E08DE792E0EB
:101FA0000E94E50966EB71E08DE792E00E94E50989
:101FB00068EE73E080E090E00E942501E0E0F0E050
:101FC000EF2B09F4E5CE0E94C101882309F4E0CE8D
:101FD0000E940000DDCE80912603909127030C948F
:101FE000F1125058BB27AA270E9409100C947C11AB
:101FF0000E946E1138F00E94751120F039F49F3F55
:1020000019F426F40C946B110EF4E095E7FB0C9494
:102010006511E92F0E948D1158F3BA1762077307F3
:102020008407950720F079F4A6F50C94AF110EF40F
:10203000E0950B2EBA2FA02D0B01B90190010C01D8
:10204000CA01A0011124FF27591B99F0593F50F4F0
:10205000503E68F11A16F040A22F232F342F442748
:10206000585FF3CF469537952795A795F040539540
:10207000C9F77EF41F16BA0B620B730B840BBAF010
:102080009150A1F0FF0FBB1F661F771F881FC2F77B
:102090000EC0BA0F621F731F841F48F4879577958F
:1020A0006795B795F7959E3F08F0B0CF9395880F49
:1020B00008F09927EE0F9795879508950E94411192
:1020C00008F481E008950E9477100C947C110E941E
:1020D000751158F00E946E1140F029F45F3F29F00D
:1020E0000C94651151110C94B0110C946B110E9459
:1020F0008D1168F39923B1F3552391F3951B550B7B
:10210000BB27AA2762177307840738F09F5F5F4FCA
:10211000220F331F441FAA1FA9F335D00E2E3AF009
:10212000E0E832D091505040E695001CCAF72BD021
:10213000FE2F29D0660F771F881FBB1F2617370772
:102140004807AB07B0E809F0BB0B802DBF01FF27A4
:1021500093585F4F3AF09E3F510578F00C9465110B
:102160000C94B0115F3FE4F3983ED4F386957795D5
:102170006795B795F7959F5FC9F7880F911D96955D
:10218000879597F90895E1E0660F771F881FBB1FB9
:10219000621773078407BA0720F0621B730B840B66
:1021A000BA0BEE1F88F7E09508950E94951188F00C
:1021B0009F5798F0B92F9927B751B0F0E1F0660F0B
:1021C000771F881F991F1AF0BA95C9F714C0B1304C
:1021D00091F00E94AF11B1E008950C94AF11672FF8
:1021E000782F8827B85F39F0B93FCCF3869577957B
:1021F0006795B395D9F73EF4909580957095619564
:102200007F4F8F4F9F4F0895E89409C097FB3EF48E
:1022100090958095709561957F4F8F4F9F4F992333
:10222000A9F0F92F96E9BB279395F69587957795B1
:102230006795B795F111F8CFFAF4BB0F11F460FF71
:102240001BC06F5F7F4F8F4F9F4F16C0882311F0C9
:1022500096E911C0772321F09EE8872F762F05C0DD
:10226000662371F096E8862F70E060E02AF09A9578
:10227000660F771F881FDAF7880F9695879597F96D
:102280000895990F0008550FAA0BE0E8FEEF161607
:102290001706E807F907C0F012161306E407F5075A
:1022A00098F0621B730B840B950B39F40A2661F0CE
:1022B000232B242B252B21F408950A2609F4A14071
:1022C000A6958FEF811D811D089597F99F6780E87E
:1022D00070E060E008959FEF80EC089500240A9478
:1022E0001616170618060906089500240A941216F1
:1022F0001306140605060895092E0394000C11F424
:10230000882352F0BB0F40F4BF2B11F460FF04C0D0
:102310006F5F7F4F8F4F9F4F089557FD9058440F29
:10232000551F59F05F3F71F04795880F97FB991F34
:1023300061F09F3F79F087950895121613061406F1
:10234000551FF2CF4695F1DF08C01616170618067E
:10235000991FF1CF86957105610508940895E89459
:10236000BB2766277727CB0197F908950E94411173
:1023700008F48FEF08950E94CE110C947C110E94F6
:102380006E1138F00E94751120F0952311F00C9415
:1023900065110C946B1111240C94B0110E948D11D5
:1023A00070F3959FC1F3950F50E0551F629FF001A8
:1023B000729FBB27F00DB11D639FAA27F00DB11DC1
:1023C000AA1F649F6627B00DA11D661F829F22274A
:1023D000B00DA11D621F739FB00DA11D621F839FD1
:1023E000A00D611D221F749F3327A00D611D231FA7
:1023F000849F600D211D822F762F6A2F11249F57F5
:1024000050409AF0F1F088234AF0EE0FFF1FBB1FF7
:10241000661F771F881F91505040A9F79E3F5105B6
:1024200080F00C9465110C94B0115F3FE4F3983E7A
:10243000D4F3869577956795B795F795E7959F5F60
:10244000C1F7FE2B880F911D9695879597F90895F2
:102450000E944111880B990B0895A1E21A2EAA1B24
:10246000BB1BFD010DC0AA1FBB1FEE1FFF1FA21744
:10247000B307E407F50720F0A21BB30BE40BF50B41
:10248000661F771F881F991F1A9469F760957095CA
:10249000809590959B01AC01BD01CF010895EE0F91
:1024A000FF1F0590F491E02D09940F931F93CF9394
:1024B000DF938230910510F482E090E0E0915003C8
:1024C000F091510330E020E0B0E0A0E0309799F4C3
:1024D0002115310509F44AC0281B390B2430310578
:1024E000D8F58A819B816115710589F1FB01938380
:1024F0008283FE0111C040815181028113814817FE
:102500005907E0F04817590799F4109761F01296AF
:102510000C93129713961C933296CF01DF91CF91B3
:102520001F910F9108950093500310935103F4CF1E
:102530002115310551F04217530738F0A901DB018D
:102540009A01BD01DF01F801C1CFEF01F9CF9093EE
:10255000510380935003CDCFFE01E20FF31F81930F
:1025600091932250310939832883D7CF20914E038C
:1025700030914F03232B41F420910201309103014C
:1025800030934F0320934E032091000130910101BD
:102590002115310541F42DB73EB74091040150910A
:1025A0000501241B350BE0914E03F0914F03E21718
:1025B000F307A0F42E1B3F0B2817390778F0AC0166
:1025C0004E5F5F4F2417350748F04E0F5F1F509343
:1025D0004F0340934E03819391939FCFF0E0E0E04F
:1025E0009CCFCF93DF930097E9F0FC0132971382E1
:1025F0001282A0915003B0915103ED0130E020E030
:102600001097A1F420813181820F931F20914E03F6
:1026100030914F032817390709F061C0F0934F0339
:10262000E0934E03DF91CF910895EA01CE17DF07C3
:10263000E8F54A815B819E0141155105B1F7E90139
:10264000FB83EA8349915991C40FD51FEC17FD070D
:1026500061F4808191810296840F951FE90199832D
:102660008883828193819B838A83F0E0E0E01296E5
:102670008D919C9113970097B9F52D913C911197ED
:10268000CD010296820F931F20914E0330914F038C
:102690002817390739F6309751F5109251031092E7
:1026A0005003B0934F03A0934E03BCCFD383C28398
:1026B00040815181840F951FC817D90761F44E5F7F
:1026C0005F4F88819981480F591F518340838A81C8
:1026D0009B81938382832115310509F0B0CFF0935C
:1026E0005103E09350039ECFFD01DC01C0CF138264
:1026F0001282D7CF10E0CDE5D0E004C0FE010E94E9
:102700004F122196CE35D107C9F7F894FFCF0000BC
:102710005203800000000000F701570184014402C9
:10272000B5019301A7010000000080065306AF0623
:1027300029064C0639062A06000000000108570148
:10274000AF0664026E616E00696E66006F766600A9
:102750004D656469646F7220444300494E413231D3
:1027600039206E6F2064657465637461646F00491D
:102770004E41323139206C6973746F00563A200033
:10278000205600493A2000206D4100503A20002098
:102790005700566F6C74616A653A20002056207CA1
:1027A0002000436F727269656E74653A2000206D77
:1027B00041207C2000506F74656E6369613A20008F
:0827C000206D57000D0A000016
:107E0000112484B714BE81FFF0D085E080938100F7
:107E100082E08093C00088E18093C10086E0809377
:107E2000C20080E18093C4008EE0C9D0259A86E02C
:107E300020E33CEF91E0309385002093840096BBD3
:107E4000B09BFECF1D9AA8958150A9F7CC24DD24C4
:107E500088248394B5E0AB2EA1E19A2EF3E0BF2EE7
:107E6000A2D0813461F49FD0082FAFD0023811F036
:107E7000013811F484E001C083E08DD089C08234E0
:107E800011F484E103C0853419F485E0A6D080C0E4
:107E9000853579F488D0E82EFF2485D0082F10E0AE
:107EA000102F00270E291F29000F111F8ED06801E7
:107EB0006FC0863521F484E090D080E0DECF843638
:107EC00009F040C070D06FD0082F6DD080E0C81688
:107ED00080E7D80618F4F601B7BEE895C0E0D1E017
:107EE00062D089930C17E1F7F0E0CF16F0E7DF06D8
:107EF00018F0F601B7BEE89568D007B600FCFDCFD4
:107F0000A601A0E0B1E02C9130E011968C91119780
:107F100090E0982F8827822B932B1296FA010C0160
:107F200087BEE89511244E5F5F4FF1E0A038BF0790
:107F300051F7F601A7BEE89507B600FCFDCF97BE46
:107F4000E89526C08437B1F42ED02DD0F82E2BD052
:107F50003CD0F601EF2C8F010F5F1F4F84911BD097
:107F6000EA94F801C1F70894C11CD11CFA94CF0C13
:107F7000D11C0EC0853739F428D08EE10CD085E9AC
:107F80000AD08FE07ACF813511F488E018D01DD067
:107F900080E101D065CF982F8091C00085FFFCCF94
:107FA0009093C60008958091C00087FFFCCF809118
:107FB000C00084FD01C0A8958091C6000895E0E648
:107FC000F0E098E1908380830895EDDF803219F02E
:107FD00088E0F5DFFFCF84E1DECF1F93182FE3DFCA
:107FE0001150E9F7F2DF1F91089580E0E8DFEE27F6
:047FF000FF270994CA
:027FFE00040479
:00000001FF
