:020000040000FA
:100000000C945D000C9485000C9485000C94850084
:100010000C9485000C9485000C9485000C9485004C
:100020000C9485000C9485000C9485000C9485003C
:100030000C9485000C9485000C9485000C9485002C
:100040000C9449090C9485000C94B9090C949309FB
:100050000C9485000C9485000C9485000C9485000C
:100060000C94EB090C9485000000000800020100CC
:100070000003040700000000000000000000000072
:10008000250028002B0000000000240027002A0083
:10009000040404040404040402020202020203032E
:1000A0000303030301020408102040800102040836
:1000B00010200102040810200A0B11241FBECFEFEC
:1000C000D8E0DEBFCDBF24E0ACECB2E001C01D92B1
:1000D000A835B207E1F712E0A0E0B1E0EEE5F6E204
:1000E00002C005900D92AC3CB107D9F710E0CDE508
:1000F000D0E004C02197FE010E942C11CC35D1071D
:10010000C9F70E94600B0C942D130C94000090E032
:10011000FC01EC55FF4F249180579F4FFC018491C7
:10012000882399F090E0880F991FFC01EA57FF4F50
:10013000A591B491FC01E458FF4F859194918FB73C
:10014000F894EC91E22BEC938FBF089590E0FC01C2
:10015000E859FF4F2491FC01EC55FF4F3491FC010D
:10016000E057FF4FE491EE23C9F0222339F023300A
:1001700001F1A8F4213019F1223029F1F0E0EE0F5D
:10018000FF1FE458FF4FA591B4918FB7F894EC91FD
:10019000611126C030953E233C938FBF08952730D0
:1001A000A9F02830C9F0243049F7809180008F7D74
:1001B00003C0809180008F7780938000DFCF84B56B
:1001C0008F7784BDDBCF84B58F7DFBCF8091B0006E
:1001D0008F778093B000D2CF8091B0008F7DF9CF20
:1001E0003E2BDACF3FB7F89480918F039091900324
:1001F000A0919103B091920326B5A89B05C02F3F13
:1002000019F00196A11DB11D3FBFBA2FA92F982F3C
:100210008827BC01CD01620F711D811D911D42E037
:10022000660F771F881F991F4A95D1F708958F92FF
:100230009F92AF92BF92CF92DF92EF92FF924B01CB
:100240005C010E94F2006B017C010E94F2006C19BB
:100250007D098E099F09683E734081059105A8F3C9
:1002600021E0821A9108A108B10888EEC80E83E047
:10027000D81EE11CF11C81149104A104B10429F7DA
:10028000FF90EF90DF90CF90BF90AF909F908F90B6
:1002900008952FB7F89460918B0370918C0380912F
:1002A0008D0390918E032FBF089508950895AF9206
:1002B000BF92CF92DF92EF92FF920F931F93CF9353
:1002C000DF936C017B018B01040F151FEB015E01B5
:1002D000AE18BF08C017D10759F06991D601ED914A
:1002E000FC910190F081E02DC6010995892B79F7E9
:1002F000C501DF91CF911F910F91FF90EF90DF909B
:10030000CF90BF90AF900895FC01538D448D252F61
:1003100030E0842F90E0821B930B541710F0CF969F
:10032000089501970895FC01918D828D981761F0D1
:10033000A28DAE0FBF2FB11D5D968C91928D9F5FE8
:100340009F73928F90E008958FEF9FEF08950F9322
:100350001F930E94490160939B0370939C038093B9
:100360009D0390939E0383E993E00E94930197FF7E
:100370001DC00E94490100919B0310919C03209194
:100380009D0330919E03601B710B820B930B0091B8
:100390009703109198032091990330919A03601765
:1003A000710782079307F8F28FEF9FEF1F910F916C
:1003B0000895FC01918D828D981731F0828DE80FA0
:1003C000F11D858D90E008958FEF9FEF0895FC015A
:1003D000918D228D892F90E0805C9F4F821B910927
:1003E0008F739927089583E993E00E94E70121E044
:1003F000892B09F420E0822F089580E090E0892B7A
:1004000029F00E94F30181110C9400000895FC0171
:10041000A48DA80FB92FB11DA35ABF4F2C91848D65
:1004200090E001968F739927848FA689B7892C93C2
:10043000A089B1898C91837080648C93938D848D15
:10044000981306C00288F389E02D80818F7D808318
:100450000895EF92FF920F931F93CF93DF93EC01D8
:1004600081E0888F9B8D8C8D98131AC0E889F9895B
:10047000808185FF15C09FB7F894EE89FF8960835E
:10048000E889F98980818370806480839FBF81E0DF
:1004900090E0DF91CF911F910F91FF90EF90089521
:1004A000F62E0B8D10E00F5F1F4F0F731127E02EFC
:1004B0008C8D8E110CC00FB607FCFACFE889F98934
:1004C000808185FFF5CFCE010E940702F1CFEB8D31
:1004D000EC0FFD2FF11DE35AFF4FF0829FB7F89408
:1004E0000B8FEA89FB8980818062CFCFCF93DF9326
:1004F000EC01888D8823B9F0AA89BB89E889F9893C
:100500008C9185FD03C0808186FD0DC00FB607FC70
:10051000F7CF8C9185FFF2CF808185FFEDCFCE01A3
:100520000E940702E9CFDF91CF91089508952091AD
:100530000D03260F3327331F21323105ECF42091B0
:100540005C03FC0190E080E0243069F082E00895D3
:10055000A0910D032191AC0143515D4FA40FB52F24
:10056000B11D2C930196861798F380910D03680FA7
:1005700060930D0380E0089581E0089510925C037C
:1005800081E080935B031092360361E082E10E9478
:10059000A60061E083E10E94A600E9EBF0E0808123
:1005A0008E7F808380818D7F808388E48093B800F4
:1005B00085E48093BC000895CF93DF9391E09093FE
:1005C000EC028823B9F0C091B800D091BA008091B4
:1005D000BC008A7B8093BC0060E082E10E94A600A0
:1005E00060E083E10E94A6000E94BE02D093BA00A0
:1005F000C093B800DF91CF9108950895E09135033D
:1006000080913403E81730F4F0E0E453FD4F80812B
:1006100090E008958FEF9FEF0895909135038091BA
:1006200034032FEF3FEF981748F4E92FF0E0E4533D
:10063000FD4F208130E09F5F90933503C9010895FD
:100640008091340390913503891B990B0895CF92C3
:10065000DF92EF92FF920F931F93CF93DF937C0172
:10066000CB018A0120916203222389F0EB016B0107
:10067000C40ED51ECC15DD0569F06991D701ED9149
:10068000FC910190F081E02DC7010995F3CF642F13
:100690000E949702C801DF91CF911F910F91FF90A7
:1006A000EF90DF90CF900895CF93DF931F92CDB757
:1006B000DEB76983209162032223F9F0209185033C
:1006C000203258F021E030E0FC013383228390E0B7
:1006D00080E00F90DF91CF91089580916303E82F20
:1006E000F0E0EC59FC4F998190838F5F8093630316
:1006F0008093850381E090E0ECCF61E0CE0101962C
:100700000E949702F7CF90E080E00895FB010190EE
:100710000020E9F73197AF01461B570BDC01ED9143
:10072000FC910280F381E02D09948F929F92AF9209
:10073000BF92EF92FF920F931F93CF93DF93CDB7AA
:10074000DEB7A1970FB6F894DEBF0FBECDBF7C0118
:10075000FA01CB0119A2223008F42AE08E010F5DC4
:100760001F4F822E912CB12CA12CBF01A501940109
:100770000E940A11F901CA016A300CF5605DD801C6
:100780006E938D01232B242B252B79F790E080E0AD
:10079000109721F0BD01C7010E948603A1960FB6F4
:1007A000F894DEBF0FBECDBFDF91CF911F910F91A7
:1007B000FF90EF90BF90AF909F908F900895695CED
:1007C000DECFCF93DF93BC0183E993E00E948603E1
:1007D000EC0167E371E083E993E00E9486038C0FEC
:1007E0009D1FDF91CF9108950C9486030F931F9363
:1007F000CF93DF93EC0188819981009759F02A818A
:100800003B812617370730F081E0DF91CF911F91B0
:100810000F9108958B016F5F7F4F0E9457120097D1
:1008200059F0998388831B830A832C813D81232B74
:1008300059F7FC011082E8CF80E0E7CF2F923F927A
:100840004F925F926F927F928F929F92AF92BF92E0
:10085000CF92DF92EF92FF921F93CF93DF93EC0141
:100860006A017B01722EAB019601CB01B6010E9499
:10087000F0106AE371E0811126C046015701E89447
:10088000B7F82FEF3FEF4FE75FE7C501B4010E94D4
:10089000F01081110CC02FEF3FEF4FE75FE7C5016C
:1008A000B4010E94390E6EE371E0181664F02FEF68
:1008B0003FEF4FE75FE4C701B6010E94A51018168D
:1008C000B4F462E471E0CE01DF91CF911F91FF900B
:1008D000EF90DF90CF90BF90AF909F908F907F90E0
:1008E0006F905F904F903F902F900C9486032FEF66
:1008F0003FEF4FE75FECC701B6010E94390E87FD5D
:10090000E0CF20E030E0A901C701B6010E94390E16
:10091000312C212C87FF0DC0E881F9810190F081F5
:10092000E02D6DE2CE0109951C01F7FAF094F7F87D
:10093000F09410E060E070E080E09FE3711641F019
:1009400020E030E040E251E40E9404101F5FF6CF47
:10095000A70196010E94980F2B013C010E9476107E
:100960004B015C012AE0BC01A401CE010E94950369
:100970007C01E20CF31C1123E1F1C501B4010E94DA
:100980003E0E9B01AC01C301B2010E94970F4B01C7
:100990005C01E881F9810190F081E02D6EE2CE01E9
:1009A0000995E80EF91E115020F120E030E040E2F8
:1009B00051E4C501B4010E949F0E2B013C010E942D
:1009C00076104B01B12CA12C2AE0B501A401CE0177
:1009D0000E949503E80EF91EC501B4010E943E0E67
:1009E0009B01AC01C301B2010E94970F4B015C0156
:1009F000DACFC701DF91CF911F91FF90EF90DF9089
:100A0000CF90BF90AF909F908F907F906F905F90AE
:100A10004F903F902F900895CF93DF93EC0160E0CB
:100A20008E810E94A60061E08E810E94A60060E097
:100A30008E810E94A6008BE891E00197F1F7DF918B
:100A4000CF910895CF92DF92EF92FF920F931F9371
:100A5000CF93DF936C017C0187E0E80EF11CD0E0BE
:100A6000C0E0062F10E0B8010C2E02C07595679506
:100A70000A94E2F76170F70181917F010E94A6005C
:100A80002196C430D10579F7C601DF91CF911F912E
:100A90000F91FF90EF90DF90CF900C940C05CF92C8
:100AA000DF92EF92FF920F931F93CF93DF93EC01AE
:100AB000F62E642F8C810E94A6008D818F3F19F045
:100AC00060E00E94A6000F2D10E08F8584FF25C0F6
:100AD0006E0187E0C80ED11CF12CE12CB8010E2C60
:100AE00002C0759567950A94E2F76170F6018191ED
:100AF0006F010E94A600FFEFEF1AFF0A88E0E816D8
:100B0000F10461F7CE01DF91CF911F910F91FF901A
:100B1000EF90DF90CF900C940C05B80184E07595B0
:100B200067958A95E1F7CE010E9422056F2DCE01CF
:100B3000DF91CF911F910F91FF90EF90DF90CF90B9
:100B40000C94220540E0682F8CE394E00C944F0550
:100B500081E00E94A2058BE39FE10197F1F70895E0
:100B6000CF93DF93813029F090914B04986090935C
:100B70004B0480934F041092500480E480935104FE
:100B800080E18093520480E5809353048091400477
:100B90000E948700809141048F3F11F00E948700DE
:100BA000809142040E948700CCE3D4E09E012C5344
:100BB000344080914B0484FD0AC084E090E021968B
:100BC000281739073CF48E810E948700EFCF88E018
:100BD00090E0F5CF8BE39DE00197F1F760E0809125
:100BE00040040E94A60060E0809142040E94A6009A
:100BF000809141048F3F19F060E00E94A60080912F
:100C00004B0484FD34C063E08CE394E00E94220531
:100C1000CBE4D6E4CE010197F1F763E08CE394E0F6
:100C20000E9422052197F1F763E08CE394E00E9493
:100C3000220583E592E00197F1F762E08CE394E00E
:100C40000E94220580914B0480620E94A20584E0EC
:100C500080934C048CE00E94A2050E94A80582E0CB
:100C600080934D0486E0DF91CF910C94A2058062C1
:100C70000E94A2058BE496E40197F1F780914B0462
:100C800080620E94A20583E592E00197F1F78091CE
:100C90004B0480620E94A205D5CF90914F04891722
:100CA00010F08FEF890FE82FF0E0E45CFB4F8489B0
:100CB00080680C94A20541E00E944F0581E090E01D
:100CC00008954F925F926F927F92BF92CF92DF9280
:100CD000EF92FF920F931F93CF93DF9355E0E52E92
:100CE000F12C11E0DFEF62E0D62E75EEC72EE5ECB9
:100CF000BE2E0E94F2002B013C0180915C03811109
:100D000061C010935C0310935B03D0935A0310925D
:100D10005903D09258031093370380913703806DA5
:100D20008093370380913603813009F0B3C010926D
:100D300036030E94F2002B013C018091370380931F
:100D4000BB0080915E0390915F03A0916003B0911E
:100D50006103892B8A2B8B2BA1F00E94F20020913A
:100D60005E0330915F034091600350916103641909
:100D7000750986099709261737074807590708F4A0
:100D800042C08091BC0083FDD8CFB092BC000E94CD
:100D9000F2002B013C0180915C03813009F47DC09D
:100DA00080915903833008F09AC080915903A8E3D9
:100DB000B3E0ECECF2E090E0981751F12D91219323
:100DC0009F5FFACF80915E0390915F03A0916003D3
:100DD000B0916103892B8A2B8B2B09F48ECF0E9453
:100DE000F20020915E0330915F03409160035091C7
:100DF000610364197509860997092617370748079B
:100E0000590708F07ACF80915D030E94DC0280E0F0
:100E10001092350380933403833009F062C080E37D
:100E200094E00E940D03082F80E394E00E940D03DC
:100E3000C82F80E394E00E940D03282F87FD51C046
:100E40006C2F70E090E080E0982F872F762F662738
:100E50002C7F622B10E030E020E098011127002762
:100E60000027112723703327602B712B822B932BA4
:100E700081FF02C08C6F9F6FDF91CF911F910F9107
:100E8000FF90EF90DF90CF90BF907F906F905F903A
:100E90004F900895C092BC007ACF80915E039091EC
:100EA0005F03A0916003B0916103892B8A2B8B2B88
:100EB00009F471CF0E94F20020915E0330915F032C
:100EC000409160035091610364197509860997097F
:100ED000261737074807590708F05DCF94CF83E0FE
:100EE00066CF6FE070E080E090E00E94170181E043
:100EF000E81AF10809F0FDCE60E070E0CB01BCCF4C
:100F000085ED8093BC0080915E0390915F03A0917A
:100F10006003B09161030796A11DB11D23E0B69552
:100F2000A795979587952A95D1F72091BC0024FD28
:100F300003C010925C03089540915E0350915F03DB
:100F40006091600370916103452B462B472B69F339
:100F50000097A105B10541F02AE22A95F1F700C0FA
:100F60000197A109B109E1CF80915D030C94DC02E6
:100F70004F925F926F927F928F929F92AF92BF92A9
:100F8000CF92DF92EF92FF920F931F93CF93DF9355
:100F900000D000D000D0CDB7DEB784E6C82ED12C6B
:100FA000F12CE12C10E01E8280E28D8301EC812C7B
:100FB000912C54010E9461060E94400E2FE632E1FE
:100FC00043E85FE30E949F0E20E030E040E057E3FB
:100FD0000E949F0E2B013C012FE632E143E85FEBBC
:100FE0000E94A51087FD31C02FE632E143E85FE3A0
:100FF000C301B2010E94390E18163CF121EA3DE20C
:101000004BE35FE3C301B2010E94970F2B013C0148
:10101000212F3E814D81502F0E94A510181624F4D7
:10102000142D5E826D82072D9201A301B201C301CE
:101030000E949F0E9B01AC01C501B4010E94980F54
:101040004B015C019FEFE91AF90A65E070E080E06E
:1010500090E00E941701A1E0CA1AD10809F0AACFB6
:10106000E114F104D1F486E491E026960FB6F894E9
:10107000DEBF0FBECDBFDF91CF911F910F91FF90CB
:10108000EF90DF90CF90BF90AF909F908F907F9028
:101090006F905F904F900C94E103C701FF0CAA0B77
:1010A000BB0B89839A83AB83BC83BC01CD010E94B7
:1010B000400E9B01AC01C501B4010E9404100E94C6
:1010C000B0106B017C0129E23CED4EE852E40E9435
:1010D0009F0E9B01AC010E94980F2B013C010E94C6
:1010E00061060E94400E2FE632E143E85FE30E9472
:1010F0009F0E20E030E040E057E30E949F0E21EA7F
:101100003DE24BE35FE30E94970F4B015C0160E619
:1011100071E083E993E00E94F40322E0B301A201AD
:1011200083E993E00E941E046EE671E083E993E098
:101130000E94F40326E0B701A60183E993E00E9430
:101140001E046AE771E083E993E00E94F40320E063
:1011500030E040E251E4612F7E818D81902F0E942A
:10116000970FAB01BC0126E083E993E00E941E04C7
:1011700065E871E083E993E00E94F40324E0B5019F
:10118000A40183E993E00E941E046DE871E083E905
:1011900093E00E94F4032AE049815A816B817C81AB
:1011A00083E993E00E94950368E971E083E993E0A5
:1011B0000E94F40367E371E083E993E00E948603F1
:1011C0000E94A80580E00E944D066BEA71E08CE366
:1011D00094E00E94F40321E0B301A2018CE394E0C7
:1011E0000E941E0461EB71E08CE394E00E94F40322
:1011F00081E00E944D0663EB71E08CE394E00E9475
:10120000F40324E0B701A6018CE394E00E941E04DD
:1012100061EB71E08CE394E00E94F40382E00E94B1
:101220004D0667EB71E08CE394E00E94F40323E049
:10123000B501A4018CE394E00E941E0461EB71E00F
:101240008CE394E00E94F40383E00E944D068091B9
:1012500000016DEB71E0811102C06BEC71E08CE379
:1012600094E026960FB6F894DEBF0FBECDBFDF9197
:10127000CF911F910F91FF90EF90DF90CF90BF9093
:10128000AF909F908F907F906F905F904F900C9455
:10129000F4031F920F920FB60F9211242F933F93D6
:1012A0008F939F93AF93BF9380918B0390918C0307
:1012B000A0918D03B0918E0330918A0323E0230F18
:1012C0002D3758F50196A11DB11D20938A038093F7
:1012D0008B0390938C03A0938D03B0938E03809126
:1012E0008F0390919003A0919103B0919203019686
:1012F000A11DB11D80938F0390939003A093910340
:10130000B0939203BF91AF919F918F913F912F9195
:101310000F900FBE0F901F90189526E8230F02968E
:10132000A11DB11DD2CF1F920F920FB60F921124A3
:101330002F933F934F935F936F937F938F939F93DD
:10134000AF93BF93EF93FF9383E993E00E9407026B
:10135000FF91EF91BF91AF919F918F917F916F918D
:101360005F914F913F912F910F900FBE0F901F9063
:1013700018951F920F920FB60F9211242F938F93EF
:101380009F93EF93FF93E091A303F091A4038081D7
:10139000E091A903F091AA0382FD1BC09081809186
:1013A000AC038F5F8F732091AD03821741F0E09102
:1013B000AC03F0E0ED56FC4F958F8093AC03FF91AA
:1013C000EF919F918F912F910F900FBE0F901F90D3
:1013D00018958081F4CF1F920F920FB60F921124AF
:1013E0002F933F934F935F936F937F938F939F932D
:1013F000AF93BF93EF93FF938091B900887F8036BE
:1014000009F44AC0F0F5883209F4A7C018F5803114
:1014100009F49BC0B8F4882309F4F9C0883009F4B2
:1014200094C0FF91EF91BF91AF919F918F917F9168
:101430006F915F914F913F912F910F900FBE0F9041
:101440001F901895883109F488C0803251F7809335
:101450005A0314C0803409F49DC040F48033B9F3BA
:101460008833F9F680935A0385ECB0C0803509F4CF
:1014700085C0883509F496C0883499F60E948007A3
:10148000D0CF883909F48CC038F5883729F050F46A
:10149000883611F0803729F683E080935C03109240
:1014A0002F0357C0883809F47BC0803919F0803881
:1014B00009F0B7CF80912F03803208F071C0E0911E
:1014C0002F0381E08E0F80932F038091BB00F0E00B
:1014D000E15FFC4F80833DC0803B39F0E0F4803A0F
:1014E00009F479C0883A09F09CCF84E080935C03CA
:1014F00010920E0310920D03E0913203F09133032A
:10150000099580910D0381110FC081E080930D0337
:101510001092ED0209C0803C09F4A6CF883C09F482
:10152000A3CF883B09F07DCFE0910E0381E08E0FC1
:1015300080930E03F0E0E351FD4F80818093BB0068
:1015400090910E0380910D0329C080913703809301
:10155000BB0085EC8093BC0064CF909159038091CF
:101560005803981758F5E091590381E08E0F809346
:101570005903F0E0E85CFC4F8081E9CFE09159032A
:1015800081E08E0F809359038091BB00F0E0E85C0E
:10159000FC4F808390915903809158039817C8F2AB
:1015A00085E8D8CFE091590381E08E0F80935903ED
:1015B0008091BB00F0E0E85CFC4F808380915B038E
:1015C00081115CCF81E08093360384EA8093BC0074
:1015D00010925C0326CF85EC8093BC0010925C03D4
:1015E00080912F03803230F4E0912F03F0E0E15F2F
:1015F000FC4F108260912F0370E0E0913003F09176
:1016000031038FE093E0099510922F030ACF1092D7
:101610005A0334CFE3E9F3E01382128288EE93E0B9
:10162000A0E0B0E084839583A683B7832BE031E00C
:101630003183208325EC30E03587248724EC30E0AB
:101640003787268720EC30E0318B208B21EC30E08F
:10165000338B228B22EC30E0358B248B26EC30E070
:10166000378B268B118E128E138E148EE0E3F4E0EE
:101670001382128284839583A683B7838DE191E0E0
:1016800091838083ECE3F4E0138212828FE291E095
:101690009183808382E084838FEF858383E08683D8
:1016A00084E0878385E0808786E0818787E0828782
:1016B0001386148615861686178681E00C94B0056D
:1016C000CF93DF93CDB7DEB728970FB6F894DEBF80
:1016D0000FBECDBF789484B5826084BD84B581602F
:1016E00084BD85B5826085BD85B5816085BD8091ED
:1016F0006E00816080936E00109281008091810065
:10170000826080938100809181008160809381005C
:10171000809180008160809380008091B10084601E
:101720008093B1008091B00081608093B00080917F
:101730007A00846080937A0080917A00826080933E
:101740007A0080917A00816080937A0080917A009B
:10175000806880937A001092C100E091A303F09119
:10176000A40382E08083E0919F03F091A0031082A4
:10177000E091A103F091A2038FEC80831092AB0360
:10178000E091A703F091A80386E08083E091A50390
:10179000F091A603808180618083E091A503F091A0
:1017A000A603808188608083E091A503F091A60361
:1017B000808180688083E091A503F091A6038081F9
:1017C0008F7D80831092350310923403109263034F
:1017D000109285030E94BE0285E591E09093330349
:1017E0008093320386E591E0909331038093300338
:1017F00084E00E94B00580E00E944D0662ED71E039
:101800008CE394E00E94F40381E00E944D0662EEB6
:1018100071E08CE394E00E94F40360ED77E080E0F7
:1018200090E00E94170181E08093620388E6809334
:101830008403109263031092850364E980E394E0CB
:101840000E9454031091850381E0113208F099C081
:101850000E94F2006B017C0180915C0381116BC0DE
:1018600082E080935C0381E080935B038FEF809341
:101870005A031092590310935803E4E6F3E0A8E3E7
:10188000B3E080E0181392C01092370380913703C1
:10189000806D8093370380913603813009F08AC0D0
:1018A000109236030E94F2006B017C018091370395
:1018B0008093BB0080915E0390915F03A0916003D1
:1018C000B0916103892B8A2B8B2BA1F00E94F2002F
:1018D00000915E0310915F032091600330916103DA
:1018E0006C197D098E099F09061717072807390704
:1018F00008F442C08091BC0083FDD8CF85EC809372
:10190000BC000E94F2006B017C0180915C0382307C
:1019100009F452C080915A038F3F09F46FC080913F
:101920005A03803209F46CC080915A03803309F065
:1019300069C083E026C080915E0390915F03A0910F
:101940006003B0916103892B8A2B8B2B09F484CF20
:101950000E94F20080905E0390905F03A09060036D
:10196000B09061036C197D098E099F098616970650
:10197000A806B90608F070CF80915D030E94DC02D2
:1019800085E010926303109285031092620388230E
:10199000D9F10E94A80561EF71E08CE394E00E9408
:1019A000F4038FEF91E00E94E103FFCF91919D93AB
:1019B0008F5F68CF85EEA3CF80915E0390915F0328
:1019C000A0916003B0916103892B8A2B8B2B09F4C2
:1019D0009CCF0E94F20000915E0310915F03209162
:1019E0006003309161036C197D098E099F09061708
:1019F00017072807390708F088CFBECF80E0C1CF8E
:101A000082E0BFCF84E0BDCF0E94A80569E172E00B
:101A10008CE394E00E94F40381E00E944D0664E2AE
:101A200072E08CE394E00E94F40385E392E00E946C
:101A3000E10360ED77E080E090E00E9417010E94F2
:101A4000A80580E0A82E80E0B82E7724739483E95F
:101A500093E00E94E701181619060CF06AC01A827A
:101A600019821C821B821E821D8270E060E0CE0102
:101A700001960E94F60329813A8181112EC0211519
:101A8000310519F0C9010E94CE111A8219821E82F5
:101A90001D821C821B820E94A7010D811E8197FD61
:101AA00024C08A30910509F18F8318860F5F1F4F7C
:101AB000B801CE0101960E94F603882361F32981C3
:101AC0003A818D819E81BE01695F7F4F820F931F96
:101AD0000E9426131E830D83DECF1E821D8269E3C2
:101AE00071E0C9010E942613D6CFC980DA80C114E3
:101AF000D10429F076010115110509F050C08D813E
:101B00009E81892B81F009811A816AE572E0C80102
:101B10000E941D13892B09F078C0709200018DE599
:101B200092E00E94E10389819A81009711F00E945E
:101B3000CE11809100018823F9F00E9449010091A3
:101B40008603109187032091880330918903601BDD
:101B5000710B820B930B683E73408105910560F019
:101B60000E94B8070E94490160938603709387031F
:101B7000809388039093890364E670E080E090E0AE
:101B80000E941701A114B10409F461CF0E94F3016E
:101B9000882309F45CCF0E94000059CF74014701EB
:101BA0002FEF821A920AF7018081082E000C990B00
:101BB0000E94300E892B91F7015011090C0D1D1D4B
:101BC000F8018081082E000C990B0E94300E892BA1
:101BD00031F00E151F0518F001501109F1CFA801C1
:101BE0004F5F5F4F4E195F095E834D83CE14DF0454
:101BF00020F4B701C6010E941413E981FA818D8196
:101C00009E81E80FF91F10827ACF6EEC71E0C80157
:101C10000E941D13892B29F4109200018AE792E09B
:101C200080CF6AE972E0C8010E941D13892B19F464
:101C300081EA92E076CF64EC72E0C8010E941D1345
:101C4000892B09F070CF0E94B8070E944901609368
:101C5000860370938703809388039093890363CFEF
:101C600091110C940C0F803219F089508550C8F7EF
:101C700008950E947B0E08F481E00895E89409C05D
:101C800097FB3EF490958095709561957F4F8F4FAF
:101C90009F4F9923A9F0F92F96E9BB279395F695C5
:101CA000879577956795B795F111F8CFFAF4BB0F43
:101CB00011F460FF1BC06F5F7F4F8F4F9F4F16C0A7
:101CC000882311F096E911C0772321F09EE8872F31
:101CD000762F05C0662371F096E8862F70E060E0ED
:101CE0002AF09A95660F771F881FDAF7880F969566
:101CF000879597F90895990F0008550FAA0BE0E80A
:101D0000FEEF16161706E807F907C0F012161306BD
:101D1000E407F50798F0621B730B840B950B39F4FD
:101D20000A2661F0232B242B252B21F408950A2663
:101D300009F4A140A6958FEF811D811D08950E9491
:101D4000B20E0C94260F0E94180F38F00E941F0F3D
:101D500020F0952311F00C940F0F0C94150F112403
:101D60000C945A0F0E94370F70F3959FC1F3950F93
:101D700050E0551F629FF001729FBB27F00DB11D0F
:101D8000639FAA27F00DB11DAA1F649F6627B00D9F
:101D9000A11D661F829F2227B00DA11D621F739F88
:101DA000B00DA11D621F839FA00D611D221F749F96
:101DB0003327A00D611D231F849F600D211D822FDD
:101DC000762F6A2F11249F5750409AF0F1F0882304
:101DD0004AF0EE0FFF1FBB1F661F771F881F915031
:101DE0005040A9F79E3F510580F00C940F0F0C94C2
:101DF0005A0F5F3FE4F3983ED4F386957795679545
:101E0000B795F795E7959F5FC1F7FE2B880F911D5A
:101E10009695879597F9089599278827089597F9B2
:101E20009F6780E870E060E008959FEF80EC089580
:101E300000240A94161617061806090608950024A9
:101E40000A9412161306140605060895092E039423
:101E5000000C11F4882352F0BB0F40F4BF2B11F497
:101E600060FF04C06F5F7F4F8F4F9F4F089557FDF6
:101E70009058440F551F59F05F3F71F04795880FF8
:101E800097FB991F61F09F3F79F08795089512168F
:101E900013061406551FF2CF4695F1DF08C016163B
:101EA00017061806991FF1CF8695710561050894EC
:101EB0000895E894BB2766277727CB0197F9089503
:101EC0002F923F924F925F926F927F928F929F924A
:101ED000AF92BF92CF92DF92EF92FF920F931F9338
:101EE000CF93DF93CDB7DEB7CA1BDB0B0FB6F894E9
:101EF000DEBF0FBECDBF09942A88398848885F8429
:101F00006E847D848C849B84AA84B984C884DF8099
:101F1000EE80FD800C811B81AA81B981CE0FD11D7D
:101F20000FB6F894DEBF0FBECDBFED010895505837
:101F3000BB27AA270E94AF0F0C94260F0E94180FF0
:101F400038F00E941F0F20F039F49F3F19F426F457
:101F50000C94150F0EF4E095E7FB0C940F0FE92F8E
:101F60000E94370F58F3BA17620773078407950763
:101F700020F079F4A6F50C94590F0EF4E0950B2E91
:101F8000BA2FA02D0B01B90190010C01CA01A001CB
:101F90001124FF27591B99F0593F50F4503E68F126
:101FA0001A16F040A22F232F342F4427585FF3CF67
:101FB000469537952795A795F0405395C9F77EF438
:101FC0001F16BA0B620B730B840BBAF09150A1F081
:101FD000FF0FBB1F661F771F881FC2F70EC0BA0F07
:101FE000621F731F841F48F4879577956795B7958F
:101FF000F7959E3F08F0B0CF9395880F08F099278A
:10200000EE0F9795879508950E9418100C94260F4F
:102010000E941F0F58F00E94180F40F029F45F3FF4
:1020200029F00C940F0F51110C945A0F0C94150FAA
:102030000E94370F68F39923B1F3552391F3951B51
:10204000550BBB27AA2762177307840738F09F5FD9
:102050005F4F220F331F441FAA1FA9F335D00E2E46
:102060003AF0E0E832D091505040E695001CCAF7B3
:102070002BD0FE2F29D0660F771F881FBB1F261776
:1020800037074807AB07B0E809F0BB0B802DBF014D
:10209000FF2793585F4F3AF09E3F510578F00C941C
:1020A0000F0F0C945A0F5F3FE4F3983ED4F38695DC
:1020B00077956795B795F7959F5FC9F7880F911D3D
:1020C0009695879597F90895E1E0660F771F881F29
:1020D000BB1F621773078407BA0720F0621B730BDC
:1020E000840BBA0BEE1F88F7E09508950E943F0F0E
:1020F00088F09F5798F0B92F9927B751B0F0E1F0C9
:10210000660F771F881F991F1AF0BA95C9F714C078
:10211000B13091F00E94590FB1E008950C94590F1D
:10212000672F782F8827B85F39F0B93FCCF38695B1
:1021300077956795B395D9F73EF49095809570950E
:1021400061957F4F8F4F9F4F08950E947B0E08F43B
:102150008FEF089519F416F40C94150F0C94F510E4
:102160000E943F0FB8F39923C9F3B6F39F57550B5D
:1021700087FF0E9403110024A0E640EA90018058E6
:102180005695979528F4805C660F771F881F20F07E
:1021900026173707480730F4621B730B840B20297E
:1021A00031294A2BA69517940794202531254A27D3
:1021B00058F7660F771F881F20F026173707480744
:1021C00030F4620B730B840B200D311D411DA09563
:1021D00081F7B901842F9158880F969587950895B6
:1021E0000E947B0E880B990B08959F3F31F0915010
:1021F00020F4879577956795B795880F911D9695EB
:10220000879597F9089591505040660F771F881F62
:10221000D2F70895A1E21A2EAA1BBB1BFD010DC027
:10222000AA1FBB1FEE1FFF1FA217B307E407F50786
:1022300020F0A21BB30BE40BF50B661F771F881F62
:10224000991F1A9469F760957095809590959B01F8
:10225000AC01BD01CF010895EE0FFF1F0590F49171
:10226000E02D09940F931F93CF93DF938230910554
:1022700010F482E090E0E0915604F091570430E0D1
:1022800020E0B0E0A0E0309799F42115310509F481
:102290004AC0281B390B24303105D8F58A819B812F
:1022A0006115710589F1FB0193838283FE0111C0E1
:1022B000408151810281138148175907E0F0481786
:1022C000590799F4109761F012960C931297139690
:1022D0001C933296CF01DF91CF911F910F910895FA
:1022E0000093560410935704F4CF2115310551F093
:1022F0004217530738F0A901DB019A01BD01DF0144
:10230000F801C1CFEF01F9CF9093570480935604A1
:10231000CDCFFE01E20FF31F81939193225031093B
:1023200039832883D7CF2091540430915504232B2F
:1023300041F420910301309104013093550420931E
:10234000540420910101309102012115310541F41D
:102350002DB73EB74091050150910601241B350B66
:10236000E0915404F0915504E217F307A0F42E1BFA
:102370003F0B2817390778F0AC014E5F5F4F2417E9
:10238000350748F04E0F5F1F509355044093540497
:10239000819391939FCFF0E0E0E09CCFCF93DF93C8
:1023A0000097E9F0FC01329713821282A091560443
:1023B000B0915704ED0130E020E01097A1F42081A6
:1023C0003181820F931F20915404309155042817B6
:1023D000390709F061C0F0935504E0935404DF918C
:1023E000CF910895EA01CE17DF07E8F54A815B81B6
:1023F0009E0141155105B1F7E901FB83EA8349913B
:102400005991C40FD51FEC17FD0761F480819181AC
:102410000296840F951FE9019983888382819381B5
:102420009B838A83F0E0E0E012968D919C91139754
:102430000097B9F52D913C911197CD010296820F2D
:10244000931F20915404309155042817390739F609
:10245000309751F51092570410925604B0935504DA
:10246000A0935404BCCFD383C28340815181840F95
:10247000951FC817D90761F44E5F5F4F8881998116
:10248000480F591F518340838A819B8193838283A4
:102490002115310509F0B0CFF0935704E0935604AD
:1024A0009ECFFD01DC01C0CF13821282D7CFB0E0F6
:1024B000A0E0EDE5F2E10C94620F8C01009751F47D
:1024C000CB010E9432118C01C801CDB7DEB7E0E12B
:1024D0000C947E0FFC01E60FF71F9C01225031097E
:1024E000E217F30708F49DC0D901CD91DC91119753
:1024F000C617D70798F0C530D10530F3CE01049741
:102500008617970708F3C61BD70B2297C193D19361
:102510006D937C93CF010E94CE11D6CF5B01AC1A94
:10252000BD0A4C018C0E9D1EA0915604B09157041B
:10253000512C412CF12CE12C109731F58091540451
:10254000909155048815990509F05CC04616570608
:1025500008F058C08091010190910201009741F468
:102560008DB79EB74091050150910601841B950BD4
:10257000E817F90708F055C0F0935504E0935404A8
:10258000F90171836083A0CF8D919C911197129670
:102590006C90129713967C901397A815B90559F56E
:1025A0006C0142E0C40ED11CCA14DB0420F1AC0162
:1025B0004A195B09DA011296159780F062827382DC
:1025C00051834083D9016D937C93E114F10471F040
:1025D000D7011396FC93EE93129776CF22968C0F29
:1025E0009D1FF90191838083F301EFCFF09357048E
:1025F000E093560469CF4816590608F42C017D0172
:10260000D3019ACFCB010E9432117C01009749F08F
:10261000AE01B8010E941413C8010E94CE118701B7
:1026200053CF10E000E050CFFB01DC0102C001906D
:102630000D9241505040D8F70895FB01DC018D9177
:10264000019080190110D9F3990B0895FB01DC0169
:1026500001900D920020E1F70895F894FFCF01005A
:102660000058048000000000002902570184017610
:1026700002E7019301D901000000005403270383FE
:1026800003FD0220030D03FE02000000005B06575D
:1026900001830396020D0A006E616E00696E66008A
:1026A0006F7666004552524F523A4E4F5F4D554538
:1026B00053545241535F56414C49444153004441A5
:1026C00054417C41435F313230563A007C56726D42
:1026D000735F636F6E643A007C5670705F636F6EF9
:1026E000643A007C56696E73743A007C4D7565736C
:1026F000747261733A007C4144433A4D4350333421
:1027000032315F31384249540056726D733A005687
:102710000041433A00496E73743A0054583A4F4EA0
:10272000204D4350333432310054583A4F4646001E
:1027300053697374656D61204D656469646F7200DF
:102740004D4350333432312031382D6269740045A5
:1027500052524F52204D4350333432310045525281
:102760004F523A4D4350333432315F4E4F5F5245F2
:1027700053504F4E4445004D435033343231204F77
:102780004B00456E7669616E646F20612045535041
:1027900033320053495354454D415F494E494349F3
:1027A00041444F3A4D4350333432315F313842491E
:1027B000545F4C4953544F004F4E00434F4D414ED0
:1027C000444F3A5452414E534D4953494F4E5F4145
:1027D0004354495641444100434F4D414E444F3AC2
:1027E0005452414E534D4953494F4E5F4445534116
:1027F00043544956414441005354415455530045B4
:10280000535441444F3A53495354454D415F465503
:102810004E43494F4E414E444F5F4D435033343247
:0A2820003100474554444154410083
:107E0000112484B714BE81FFF0D085E080938100F7
:107E100082E08093C00088E18093C10086E0809377
:107E2000C20080E18093C4008EE0C9D0259A86E02C
:107E300020E33CEF91E0309385002093840096BBD3
:107E4000B09BFECF1D9AA8958150A9F7CC24DD24C4
:107E500088248394B5E0AB2EA1E19A2EF3E0BF2EE7
:107E6000A2D0813461F49FD0082FAFD0023811F036
:107E7000013811F484E001C083E08DD089C08234E0
:107E800011F484E103C0853419F485E0A6D080C0E4
:107E9000853579F488D0E82EFF2485D0082F10E0AE
:107EA000102F00270E291F29000F111F8ED06801E7
:107EB0006FC0863521F484E090D080E0DECF843638
:107EC00009F040C070D06FD0082F6DD080E0C81688
:107ED00080E7D80618F4F601B7BEE895C0E0D1E017
:107EE00062D089930C17E1F7F0E0CF16F0E7DF06D8
:107EF00018F0F601B7BEE89568D007B600FCFDCFD4
:107F0000A601A0E0B1E02C9130E011968C91119780
:107F100090E0982F8827822B932B1296FA010C0160
:107F200087BEE89511244E5F5F4FF1E0A038BF0790
:107F300051F7F601A7BEE89507B600FCFDCF97BE46
:107F4000E89526C08437B1F42ED02DD0F82E2BD052
:107F50003CD0F601EF2C8F010F5F1F4F84911BD097
:107F6000EA94F801C1F70894C11CD11CFA94CF0C13
:107F7000D11C0EC0853739F428D08EE10CD085E9AC
:107F80000AD08FE07ACF813511F488E018D01DD067
:107F900080E101D065CF982F8091C00085FFFCCF94
:107FA0009093C60008958091C00087FFFCCF809118
:107FB000C00084FD01C0A8958091C6000895E0E648
:107FC000F0E098E1908380830895EDDF803219F02E
:107FD00088E0F5DFFFCF84E1DECF1F93182FE3DFCA
:107FE0001150E9F7F2DF1F91089580E0E8DFEE27F6
:047FF000FF270994CA
:027FFE00040479
:00000001FF
