:100000000C94EC000C9414010C9414010C94140145
:100010000C9414010C9414010C9414010C9414010C
:100020000C9414010C9414010C9414010C941401FC
:100030000C9414010C9414010C9414010C941401EC
:100040000C944D140C9414010C94BD140C9497143E
:100050000C9414010C9414010C9414010C941401CC
:100060000C94EF140C941401626C6E6B696E660054
:100070006D637500302E302E300066772D747970E8
:100080006500544D504C3257467533553068640006
:100090006275696C64004F637420203820323032FE
:1000A000352032333A33323A353800626C796E6B30
:1000B00000312E332E3200682D62656174003435B4
:1000C00000627566662D696E0032353600646576AD
:1000D0000041726475696E6F20556E6F00637075B4
:1000E0000041546D6567613332385000636F6E00B4
:1000F00053747265616D0000000000000024002749
:10010000002A0000000000250028002B000000004D
:10011000002300260029000404040404040404024B
:100120000202020202030303030303010204081094
:100130002040800102040810200102040810200061
:100140000000080002010000030407000000000096
:1001500000000022012201220122012201220122AB
:100160000122012201220122012201220122012277
:100170000122012201220122012201220122012267
:100180000122012201220122012201220122012257
:10019000012201210121012101210121012101214E
:1001A000012101210121012101210121012101213F
:1001B000012101210121012101210121012101212F
:1001C000012101210121012101210121012101211F
:1001D000012101000E16581911241FBECFEFD8E0DF
:1001E000DEBFCDBF12E0A0E0B1E0E8ECFBE302C06F
:1001F00005900D92A431B107D9F723E0A4E1B2E054
:1002000001C01D92A23DB207E1F710E0CBEED0E0B5
:1002100004C02197FE010E94B01DCA3ED107C9F754
:100220000E94A0160C94D71D0C94000082309105FA
:1002300038F0880F991F880F991F05970197F1F7DC
:1002400008950895089508950895833081F028F45D
:10025000813099F08230A9F008958730A9F0883074
:10026000C9F08430B1F4809180008F7D03C080910B
:1002700080008F7780938000089584B58F7784BD48
:10028000089584B58F7DFBCF8091B0008F778093E8
:10029000B00008958091B0008F7DF9CF1F93CF9368
:1002A000DF93282F30E0F901E15CFE4F8491F901E2
:1002B000E55DFE4FD491F901E95EFE4FC491CC2378
:1002C000A9F0162F81110E942501EC2FF0E0EE0F0E
:1002D000FF1FED5FFE4FA591B4918FB7F894EC919D
:1002E000111108C0D095DE23DC938FBFDF91CF9131
:1002F0001F910895DE2BF8CFCF93DF9390E0FC01A0
:10030000E55DFE4F2491895E9E4FFC018491882318
:10031000C9F090E0880F991FFC01E750FF4FA591AD
:10032000B491FC01ED5FFE4FC591D49161110DC0F8
:100330009FB7F8948C91209582238C9388812823F1
:1003400028839FBFDF91CF910895623051F49FB70A
:10035000F8943C91822F809583238C93E8812E2BF7
:10036000EFCF8FB7F894EC912E2B2C938FBFEACF61
:100370003FB7F89480917D0290917E02A0917F0218
:10038000B091800226B5A89B05C02F3F19F00196B9
:10039000A11DB11D3FBFBA2FA92F982F8827BC01DF
:1003A000CD01620F711D811D911D42E0660F771F07
:1003B000881F991F4A95D1F708958F929F92AF9207
:1003C000BF92CF92DF92EF92FF926B017C010E946D
:1003D000B8014B015C01C114D104E104F104B9F08E
:1003E0000E94B801681979098A099B09683E73401F
:1003F0008105910580F321E0C21AD108E108F108D6
:1004000088EE880E83E0981EA11CB11CE4CFFF90FB
:10041000EF90DF90CF90BF90AF909F908F90089516
:100420002FB7F8946091790270917A0280917B02E3
:1004300090917C022FBF0895AF92BF92CF92DF922E
:10044000EF92FF920F931F93CF93DF936C017B0189
:100450008B01040F151FEB015E01AE18BF08C0171A
:10046000D10759F06991D601ED91FC910190F0818D
:10047000E02DC6010995892B79F7C501DF91CF9150
:100480001F910F91FF90EF90DF90CF90BF90AF90B2
:100490000895FC01538D448D252F30E0842F90E08A
:1004A000821B930B541710F0CF960895019708956F
:1004B000FC01918D828D981761F0A28DAE0FBF2F38
:1004C000B11D5D968C91928D9F5F9F73928F90E08E
:1004D00008958FEF9FEF0895FC01918D828D9817FD
:1004E00031F0828DE80FF11D858D90E008958FEF3A
:1004F0009FEF0895FC01918D228D892F90E0805C03
:100500009F4F821B91098F739927089587ED92E081
:100510000E947A0221E0892B09F420E0822F0895BD
:1005200080E090E0892B29F00E94860281110C94D2
:1005300000000895FC01A48DA80FB92FB11DA35A86
:10054000BF4F2C91848D90E001968F739927848FF3
:10055000A689B7892C93A089B1898C918370806416
:100560008C93938D848D981306C00288F389E02DB7
:1005700080818F7D80830895EF92FF920F931F9368
:10058000CF93DF93EC0181E0888F9B8D8C8D981346
:100590001AC0E889F989808185FF15C09FB7F89452
:1005A000EE89FF896083E889F9898081837080649E
:1005B00080839FBF81E090E0DF91CF911F910F91E9
:1005C000FF90EF900895F62E0B8D10E00F5F1F4FF8
:1005D0000F731127E02E8C8D8E110CC00FB607FC07
:1005E000FACFE889F989808185FFF5CFCE010E9495
:1005F0009A02F1CFEB8DEC0FFD2FF11DE35AFF4F67
:10060000F0829FB7F8940B8FEA89FB898081806222
:10061000CFCFCF93DF93EC01888D8823B9F0AA89DF
:10062000BB89E889F9898C9185FD03C0808186FDAD
:100630000DC00FB607FCF7CF8C9185FFF2CF8081FC
:1006400085FFEDCFCE010E949A02E9CFDF91CF91D5
:100650000895FC0183858F3F19F061E00C944E01F1
:100660000895FC0180819181892B39F0A281B381A9
:100670009C9111968C919CBD8DBD83858F3F19F007
:1006800060E00C944E010895AF92BF92CF92DF923A
:10069000EF92FF920F931F93CF93DF93EC0188812A
:1006A0009981892B89F06EBD0DB407FEFDCFBEB4D4
:1006B0008B2DDF91CF911F910F91FF90EF90DF90E5
:1006C000CF90BF90AF9008958885998511E0892BD0
:1006D00009F010E8AA24A394862F812309F0A12C05
:1006E000062F2C813D814E815F8160E271EA87E0B7
:1006F00090E00E94231DF22EB02EE12CC22ED12CB0
:10070000FF2019F0C6010E9416018A85877F09F033
:1007100042C08D858F3F89F0902F912381E009F4AD
:1007200080E08A1551F0EF85F8898F89992369F166
:100730009081892B8083AA24A394E989FA898081F6
:10074000998D892B8083FF2019F0C6010E94160124
:100750008E858F3F39F0EB89FC898081988D8923C4
:1007600009F0E12AE989FA899081898D80958923A8
:1007700080838E858F3F09F0BE2C88859985892BD3
:10078000B9F5110F1111BCCF93CF908180958923BA
:100790008083A12CD2CFE989FA898081998D892B18
:1007A0008083FF2019F0C6010E9416018D858F3FBE
:1007B00049F0EF85F8898F89902F9123A9F09081D6
:1007C000892B8083E989FA899081898D8095892395
:1007D00080838E858F3F69F2EB89FC898081988DBB
:1007E000892339F2E12AC5CF908180958923E9CF09
:1007F0001695C8CF8F929F92AF92BF92CF92DF9201
:10080000EF92FF920F931F93CF93DF937C014B01E5
:100810006A01B22EA32E0E943103E401C80CD91C38
:10082000CC15DD0569F4CB2DDA2D0C0F1D1FC0177B
:10083000D10759F06FEFC7010E9444038993F7CFA6
:100840006991C7010E944403EBCFC7010E942903AD
:1008500081E0DF91CF911F910F91FF90EF90DF909A
:10086000CF90BF90AF909F908F9008958F929F925E
:10087000AF92BF92CF92DF92EF92FF920F931F93AE
:10088000CF93DF937C01B62EA72E6A0149010E9407
:100890003103E401080D191DC017D10761F4CB2DF8
:1008A000DA2DCC0EDD1ECC15DD0551F06991C701A6
:1008B0000E944403F8CF6991C7010E944403ECCF22
:1008C000C7010E94290381E0DF91CF911F910F9111
:1008D000FF90EF90DF90CF90BF90AF909F908F9060
:1008E000089520913502260F3327331F2132310519
:1008F000ECF42091AD02FC0190E080E0243069F03E
:1009000082E00895A09135022191AC014B5E5D4FCC
:10091000A40FB52FB11D2C930196861798F38091E3
:100920003502680F6093350280E0089581E00895F4
:100930001092AD0281E08093AC021092870261E0D8
:1009400082E10E944E0161E083E10E944E01E9EBE9
:10095000F0E080818E7F808380818D7F808388E43A
:100960008093B80085E48093BC00089510928602BD
:10097000109285021092B4021092D6020E9498043E
:1009800083E291E0909384028093830284E291E079
:1009900090938202809381020895CF93DF9391E038
:1009A000909314028823B9F0C091B800D091BA0096
:1009B0008091BC008A7B8093BC0060E082E10E9451
:1009C0004E0160E083E10E944E010E949804D093A2
:1009D000BA00C093B800DF91CF9108958F929F9293
:1009E000AF92BF92CF92DF92EF92FF920F931F933D
:1009F000CF93DF93D091D602D13208F0D7C0182F11
:100A0000C091D5020E94B8016B017C018091AD02BA
:100A100081116BC082E08093AD021093AC028FEF26
:100A20008093AB021092AA02D093A902A5EBB2E088
:100A3000E9E8F2E080E0D81391C01092880280913A
:100A40008802CC0FC82BC093880280918702813026
:100A500009F088C0109287020E94B8016B017C01E6
:100A6000809188028093BB008091AF029091B00288
:100A7000A091B102B091B202892B8A2B8B2BA1F0ED
:100A80000E94B8010091AF021091B0022091B10212
:100A90003091B2026C197D098E099F09061717075C
:100AA0002807390708F442C08091BC0083FDD8CFE5
:100AB00085EC8093BC000E94B8016B017C018091A1
:100AC000AD02823009F450C08091AB028F3F09F42F
:100AD0006FC08091AB02803209F46CC08091AB0290
:100AE000803309F469C084E026C08091AF02909100
:100AF000B002A091B102B091B202892B8A2B8B2B4C
:100B000009F484CF0E94B8018090AF029090B002A7
:100B1000A090B102B090B2026C197D098E099F09B4
:100B200086169706A806B90608F070CF8091AE0227
:100B30000E94CD0485E01092B4021092D602109269
:100B4000B302DF91CF911F910F91FF90EF90DF9053
:100B5000CF90BF90AF909F908F9008959D9191936B
:100B60008F5F69CF85EEA5CF8091AF029091B002E3
:100B7000A091B102B091B202892B8A2B8B2B09F480
:100B80009ECF0E94B8010091AF021091B002209157
:100B9000B1023091B2026C197D098E099F090617C6
:100BA00017072807390708F08ACFC0CF81E0C3CFE5
:100BB00080E0C1CF82E0BFCF83E0BDCF1F93CF9352
:100BC000DF93EA01122FDC0111968D919C91DC01DB
:100BD000ED91FC910280F381E02D0995C817D907AA
:100BE00029F4812F0E94EE0491E0811190E0892F79
:100BF000DF91CF911F910895CF92DF92EF92FF92F4
:100C00000F931F93CF93DF9300D0CDB7DEB7DC01F6
:100C100051964D935D936D937C9354971C968C9154
:100C20001C978823C1F11E964C931E97452F562F73
:100C3000672F7727882399F11D964C931D977D0187
:100C40008DE0E80EF11C18969C91189719968C91DE
:100C5000199799838A83CD90DC901197C114D104A0
:100C600009F448C01B960C9110E098012E5F3F4F8D
:100C7000D60114968D919C9182179307A0F480E081
:100C80000F900F90DF91CF911F910F91FF90EF90F8
:100C9000DF90CF9008951D964C931D97C7CF1E9659
:100CA0004C931E97CCCFF60181819281208131E057
:100CB0003093B3022093D5021092B4021092D60260
:100CC0000115110541F421E042E050E0B701C601F1
:100CD0000E94DE05D5CFDC01ED91FC910280F3810D
:100CE000E02DA801BE016F5F7F4F09950817190716
:100CF00031F6E9CF1296ED91FC911397309751F1AF
:100D000016962D913C9117971B960C9110E023306D
:100D1000310579F48E7F89839A830F5F1F4F9E017F
:100D20002F5F3F4F42E050E0B701CF010E943604F1
:100D3000A7CF2115310519F49F779983F0CF223081
:100D4000310511F49068F9CF2130310541F79F77D3
:100D50009064F3CF1496ED91FC911597309709F4B8
:100D60008ECF8085882309F48ACFC680D780C114AE
:100D7000D10409F484CF02E010E097011B964C9156
:100D8000BE016F5F7F4F81859285F601099578CF0F
:100D9000CF93DF93EC018B818823A1F0888191E0D0
:100DA0009093B3028093D5021092B4021092D602AF
:100DB00081E00E94EE0491E0811190E0892FDF91A3
:100DC000CF9108950E94B60481E08B83CE010E94EA
:100DD000C806982F8111E2CFF1CFE0918602809171
:100DE0008502E81730F4F0E0E85AFD4F808190E08A
:100DF00008958FEF9FEF089590918602809185026C
:100E00002FEF3FEF981748F4E92FF0E0E85AFD4F35
:100E1000208130E09F5F90938602C9010895809100
:100E2000850290918602891B990B0895CF92DF92DB
:100E3000EF92FF920F931F93CF93DF937C01CB012F
:100E40008A012091B302222389F0EB016B01C40EC9
:100E5000D51ECC15DD0569F06991D701ED91FC91A6
:100E60000190F081E02DC7010995F3CF642F0E9416
:100E70007104C801DF91CF911F910F91FF90EF9006
:100E8000DF90CF900895CF93DF931F92CDB7DEB759
:100E900069832091B3022223F9F02091D6022032F7
:100EA00058F021E030E0FC013383228390E080E0C1
:100EB0000F90DF91CF9108958091B402E82FF0E078
:100EC000EB54FD4F998190838F5F8093B4028093A0
:100ED000D60281E090E0ECCF61E0CE0101960E9465
:100EE0007104F7CF90E080E008958F929F92AF92C7
:100EF000BF92CF92DF92EF92FF920F931F93CF9307
:100F0000DF936C017B018B01040F151F0E941002FF
:100F10004B015C01E701C017D107C8F40E94100221
:100F2000681979098A099B0960377741810591051C
:100F300070F4D6018D919C91DC01ED91FC910284BD
:100F4000F385E02D099597FDE6CF8993E4CFCE0197
:100F50008E199F09DF91CF911F910F91FF90EF9014
:100F6000DF90CF90BF90AF909F908F90089508959D
:100F7000CF93DF93EC0160E08E810E944E0161E02F
:100F80008E810E944E0160E08E810E944E018BE8AE
:100F900091E00197F1F7DF91CF910895CF92DF9221
:100FA000EF92FF920F931F93CF93DF936C017C011D
:100FB00087E0E80EF11CD0E0C0E0062F10E0B80199
:100FC0000C2E02C0759567950A94E2F76170F701DF
:100FD00081917F010E944E012196C430D10579F79D
:100FE000C601DF91CF911F910F91FF90EF90DF909D
:100FF000CF900C94B807CF92DF92EF92FF920F93AD
:101000001F93CF93DF93EC01F62E642F8C810E9407
:101010004E018D818F3F19F060E00E944E010F2D2F
:1010200010E08F8584FF25C06E0187E0C80ED11CBB
:10103000F12CE12CB8010E2C02C0759567950A942D
:10104000E2F76170F60181916F010E944E01FFEF9E
:10105000EF1AFF0A88E0E816F10461F7CE01DF918C
:10106000CF911F910F91FF90EF90DF90CF900C9454
:10107000B807B80184E0759567958A95E1F7CE01C8
:101080000E94CE076F2DCE01DF91CF911F910F915E
:10109000FF90EF90DF90CF900C94CE0740E0682F48
:1010A00080E993E00C94FB0781E00E944E088BE3FB
:1010B0009FE10197F1F70895CF93DF93813029F0F5
:1010C00090919F03986090939F038093A303109245
:1010D000A40380E48093A50380E18093A60380E5C8
:1010E0008093A70361E0809194030E947C0180912A
:1010F00095038F3F19F061E00E947C0161E08091CF
:1011000096030E947C01C0E9D3E09E012059334040
:1011100080919F0384FD0BC084E090E02196281706
:10112000390744F461E08E810E947C01EECF88E0B3
:1011300090E0F4CF8BE39DE00197F1F760E08091C0
:1011400094030E944E0160E0809196030E944E013C
:10115000809195038F3F19F060E00E944E018091CD
:101160009F0384FD34C063E080E993E00E94CE07D2
:10117000CBE4D6E4CE010197F1F763E080E993E098
:101180000E94CE072197F1F763E080E993E00E9487
:10119000CE0783E592E00197F1F762E080E993E002
:1011A0000E94CE0780919F0380620E944E0884E0D7
:1011B0008093A0038CE00E944E080E94540882E0B5
:1011C0008093A10386E0DF91CF910C944E0880625A
:1011D0000E944E088BE496E40197F1F780919F03FB
:1011E00080620E944E0883E592E00197F1F78091BA
:1011F0009F0380620E944E08D5CF9091A303891768
:1012000010F08FEF890FE82FF0E0E057FC4F848952
:1012100080680C944E0841E00E94FB0781E090E05A
:1012200008952F923F924F925F926F927F928F928A
:101230009F92AF92BF92CF92DF92EF92FF920F9365
:101240001F93CF93DF9300D000D000D0CDB7DEB78F
:101250007C017E836D830D969C838B83D7011896CA
:101260009C91189719968C91199799838A83CD90A0
:10127000DC901197C114D10409F450C11B964C9114
:1012800050E0F6018481958184179507A8F080814C
:1012900091E09093B3028093D5021092B402109221
:1012A000D60220E0BE016F5F7F4FC6010E94DE05BF
:1012B000712C612C81111AC080E026960FB6F8942B
:1012C000DEBF0FBECDBFDF91CF911F910F91FF9079
:1012D000EF90DF90CF90BF90AF909F908F907F90D6
:1012E0006F905F904F903F902F900895D601149685
:1012F0008D919C9102E010E0061917098017910763
:1013000008F48C01F60150800E94B8014B015C0189
:101310008091AD02811176C0B02EF0E2F01710F48A
:1013200040E2B42E81E08093AD0221E082E090E0C3
:10133000801B910B6816790608F420E02093AC021C
:101340009FEF9093AB021092AA028FEF8B0D8093C8
:10135000A902A1E0A093880280918802550C582A26
:101360005092880280918702813009F093C01092D8
:1013700087020E94B8011B012C0180918802809392
:10138000BB008091AF029091B002A091B102B091E8
:10139000B202892B8A2B8B2BA1F00E94B8012091DD
:1013A000AF023091B0024091B1025091B202621985
:1013B000730984099509261737074807590708F460
:1013C00042C08091BC0083FDD8CFB5ECB093BC0087
:1013D0000E94B8011B012C018091AD02813009F4FB
:1013E0005DC08091AA028B1510F4B090AA02A9E802
:1013F000B2E0E8E5F2E080E08B1551F19D91919328
:101400008F5FFACF8091AF029091B002A091B102AC
:10141000B091B202892B8A2B8B2B09F479CF0E94D1
:10142000B8012091AF023091B0024091B1025091C9
:10143000B202681979098A099B09261737074807F4
:10144000590708F065CF8091AE020E94CD04B12CFF
:1014500010928602B0928502B016110609F02CCFC8
:101460008B809C80860C971C5401C50188199909B2
:1014700080179107A8F5D60111968D919C91DC01FA
:10148000ED91FC910284F385E02D0995F50181939E
:101490005F01EBCFE5EEE093BC009ACF8091AF0205
:1014A0009091B002A091B102B091B202892B8A2B27
:1014B0008B2B09F491CF0E94B8012091AF0230919B
:1014C000B0024091B1025091B202621973098409CD
:1014D0009509261737074807590708F07DCFB3CF7E
:1014E000600E711EF2E06F16710408F4FFCED70192
:1014F0001C968C911C97811165C01E968C911E972D
:1015000090E0982F8827ED81FE81918380831D963E
:101510002C91822B9183808381E0CFCE1296ED9126
:10152000FC911397309761F116962D913C91179786
:101530001B964C9150E02330310591F481608983F2
:101540009A834F5F5F4F02E010E02B813C81BE0128
:101550006F5F7F4FCF010E94FA038111C8CFADCEDC
:101560002115310519F490689983EDCF22303105AA
:1015700011F49F77F9CF2130310529F7906CF4CF22
:10158000F701A481B581109709F496CE18968C9135
:101590001897882309F490CE1496CD90DC90159777
:1015A000C114D10409F488CE02E010E02B813C8103
:1015B0004385BE016F5F7F4F19968D919C91F60117
:1015C0000995CBCF1D968C911D9790E0982F882779
:1015D000ED81FE81918380831E962C919ACFFB0131
:1015E00001900020E9F73197AF01461B570BDC0152
:1015F000ED91FC910280F381E02D09948F929F92EE
:10160000AF92BF92EF92FF920F931F93CF93DF930E
:10161000CDB7DEB7A1970FB6F894DEBF0FBECDBF32
:101620007C01FA01CB0119A2223008F42AE08E01D4
:101630000F5D1F4F822E912CB12CA12CBF01A50153
:1016400094010E94231DF901CA016A300CF5605D06
:10165000D8016E938D01232B242B252B79F790E055
:1016600080E0109721F0BD01C7010E94EF0AA1960A
:101670000FB6F894DEBF0FBECDBFDF91CF911F91A3
:101680000F91FF90EF90BF90AF909F908F90089533
:10169000695CDECF2F923F924F925F926F927F9262
:1016A0008F929F92AF92BF92CF92DF92EF92FF9272
:1016B0001F93CF93DF93EC016A017B01722EAB0184
:1016C0009601CB01B6010E941E1D66E371E08111F7
:1016D00026C046015701E894B7F82FEF3FEF4FE7D8
:1016E0005FE7C501B4010E941E1D81110CC02FEFE0
:1016F0003FEF4FE75FE7C501B4010E94541B6AE367
:1017000071E0181664F02FEF3FEF4FE75FE4C70179
:10171000B6010E94AC1C1816B4F46EE371E0CE0161
:10172000DF91CF911F91FF90EF90DF90CF90BF900E
:10173000AF909F908F907F906F905F904F903F9071
:101740002F900C94EF0A2FEF3FEF4FE75FECC701AC
:10175000B6010E94541B87FDE0CF20E030E0A901D4
:10176000C701B6010E94541B312C212C87FF0DC0EC
:10177000E881F9810190F081E02D6DE2CE010995BB
:101780001C01F7FAF094F7F8F09410E060E070E0D4
:1017900080E09FE3711641F020E030E040E251E448
:1017A0000E94591B1F5FF6CFA70196010E94E81AFD
:1017B0002B013C010E94CB1B4B015C012AE0BC01C8
:1017C000A401CE010E94FE0A7C01E20CF31C11234D
:1017D000E1F1C501B4010E94FA1B9B01AC01C301F8
:1017E000B2010E94E71A4B015C01E881F981019086
:1017F000F081E02D6EE2CE010995E80EF91E115040
:1018000020F120E030E040E251E4C501B4010E9443
:10181000B11C2B013C010E94CB1B4B01B12CA12C14
:101820002AE0B501A401CE010E94FE0AE80EF91ECD
:10183000C501B4010E94FA1B9B01AC01C301B201B6
:101840000E94E71A4B015C01DACFC701DF91CF910B
:101850001F91FF90EF90DF90CF90BF90AF909F903F
:101860008F907F906F905F904F903F902F90089552
:101870000C94EF0ADC01ED91FC911197309761F027
:1018800012962D913C911397E217F30728F40190DB
:101890000020E9F7ED93FC930895FC01808191818C
:1018A000009739F0228133818217930710F40C944A
:1018B000831A90E080E0089585ED8093BC008091CC
:1018C000AF029091B002A091B102B091B20207961E
:1018D000A11DB11D23E0B695A795979587952A95EB
:1018E000D1F72091BC0024FD03C01092AD020895F1
:1018F0004091AF025091B0026091B1027091B2027A
:10190000452B462B472B69F30097A105B10541F004
:101910002AE22A95F1F700C00197A109B109E1CFA8
:101920008091AE020C94CD040F931F93CF93DF935D
:10193000EC01FB0101900020E9F78F01061B170B5A
:101940008A819B81A801480F591F2C813D81241752
:10195000350768F028813981A801820F931F0E9402
:10196000B61D4A815B81400F511F5B834A83DF9123
:10197000CF911F910F9108950F931F93CF93DF93F2
:10198000CDB7DEB728970FB6F894DEBF0FBECDBF38
:101990008C01CB014AE0BE016F5F7F4F0E94AA1A03
:1019A000BE016F5F7F4FC8010E94940C28960FB64E
:1019B000F894DEBF0FBECDBFDF91CF911F910F9185
:1019C00008953F924F925F926F927F928F929F9273
:1019D000AF92BF92CF92DF92EF92FF920F931F933D
:1019E000CF93DF93CDB7DEB7A3970FB6F894DEBFE2
:1019F0000FBECDBF5C012DB73EB73BA32AA360E06D
:101A000070E0CB010E94DD01D50191968D919C91F2
:101A10009297912C029709F499C390968C91909784
:101A20008F5F90968C9390975E962D913C915F97E7
:101A3000232B19F09924939482C38330D8F71A96F4
:101A4000ED91FC918281882309F45EC3FE013196F9
:101A50003F0150E1452E512CD5011A96ED91FC9194
:101A600080819181DC01ED91FC910084F185E02D74
:101A70000995181619060CF047C345E050E0BE0161
:101A8000695E7F4FF501828593850E9475070097F7
:101A900019F3059709F04AC0888D998D98278927F1
:101AA0009827998F888F0A8D1B8D10270127102763
:101AB0001B8F0A8F892BD1F18F89811143C00E941E
:101AC0001002D50150966D937D938D939C935397FF
:101AD00091962D913C9192974A8D5B8D232B69F5C0
:101AE000288D398D2130310541F549305105C1F03E
:101AF000483C510519F044305105C1F4F501608F9F
:101B0000718F828F938F21E030E032A321A3C50132
:101B10000E94E01360E070E0CB010E94DD019CCFE9
:101B200083E090E092969C938E939197D5011A96BC
:101B3000ED91FC911282912C02C34530510509F0C0
:101B40008BCFF4CFF501828593850130F1E01F073B
:101B500040F0D50192961C921E929197FC01128240
:101B60007BCF8DB69EB698012F5F3F4F4DB75EB7C6
:101B7000421B530B0FB6F8945EBF0FBE4DBFADB7FF
:101B8000BEB711967D01A801BD010E94750780179F
:101B9000910709F05FC0EA8DFB8DEE0DFF1D1082ED
:101BA0000E941002F501608B718B828B938B8F8961
:101BB000843109F486C0E8F48F3009F482C08131A1
:101BC00009F485C2863009F097C2488D598DD12C11
:101BD000C12CF12CE12C08EC10E030E020E060E0BA
:101BE000C5010E949C110FB6F8949EBE0FBE8DBE1B
:101BF00033CF8932C9F08733B1F38D3109F07CC21C
:101C0000D50181A192A1892B01F7E1E0F0E0929644
:101C1000FC93EE939197C5010E94E01360E070E0A1
:101C2000CB010E94DD01D1CF86859785892B39F4C0
:101C300080E490E00E945E19F501978786878A8D7F
:101C40009B8D8E0D9F1DFA82E9829C838B83E81603
:101C5000F90630F00FB6F8949EBE0FBE8DBE66CF6B
:101C600040E450E0B701D5011E968D919C910E94F1
:101C7000C81DD5011E96ED91FC9117AEC3010E94BF
:101C80003A0CD5011A96ED91FC911B97128292960F
:101C90001C921E9291970E941002DC01CB01885881
:101CA0009341A109B109F501848B958BA68BB78B64
:101CB000808B918BA28BB38B808F918FA28FB38FF0
:101CC00092CF888D998DD5015F969C938E935E9768
:101CD000EA8DFB8DF9A3E8A36F01CE0CDF1CFD8E0E
:101CE000EC8EDF8ECE8EEC14FD0408F083C1D7019C
:101CF0000D911C91CE014C960E943A0CFC01808102
:101D000091818C159D0508F075C18C8D9D8DDC0130
:101D10002C91213409F065C001960E94831A4EE08F
:101D2000342E380E06970CF461C00637B2E71B0755
:101D300009F460C108F0EFC20136F2E71F0709F4A9
:101D4000D5C2043622E7120709F060C033243A9462
:101D50007A8A698A1C8A1B8A5E8A4D8A60E571E0EC
:101D6000CE0141960E94940C032D10E0B801CE01E3
:101D700041960E94BC0CF801E15CFE4F8491F80191
:101D8000E55DFE4FF490095E1E4FF801049160E09E
:101D900070E0002389F081110E942501E02FF0E01E
:101DA000EE0FFF1FE35FFE4FA591B491EC91FE2271
:101DB00061E070E009F460E0CE0141960E94BC0C45
:101DC0000B891C890150110929893A89D12CC12C10
:101DD000F12CE12C50E040E064E1C5010E949C112F
:101DE00009C1CE014C960E944D0C382E0637B2E741
:101DF0001B0709F422C1E0F40136F2E71F0709F4DA
:101E0000AAC0043622E7120709F4A2CF00371D4604
:101E100009F466C0D5015E964D915C91D12CC12C20
:101E2000F12CE12C02E010E030E020E060E0D5CFC2
:101E3000043647E7140709F473C0063757E7150758
:101E400009F415C10136174729F7CE014C960E94B7
:101E50003A0CDC018D919C918C159D0508F0CAC04F
:101E600061E0832D0E947C01CE014C960E944D0CB6
:101E70008C0161E0832D0E947C010115110509F49C
:101E800065C00F3F110509F090C061E060C0CE0150
:101E90004C960E944D0CF82ECE014C960E943A0CA6
:101EA0000C8D1D8D62E471E0C8010E94BF1D60E0D1
:101EB000892B79F065E471E0C8010E94BF1D892B70
:101EC00039F069E471E0C8010E94BF1D892BE9F473
:101ED00061E08F2D0E947C01CE014C960E943A0C4D
:101EE0008C8D9D8D8C159D0508F084C0DC012C9196
:101EF000213469F601960E94831A3EE0F32EF80E13
:101F0000069754F2FF24FA94C7CF6DE471E0C8013C
:101F10000E94BF1D892B01F762E0DBCF33243A9486
:101F2000CE014C960E943A0CDC018D919C918C154F
:101F30009D0508F05FC061E0832D0E947C01CE0109
:101F40004C960E944D0C61E0892B09F460E0832DD2
:101F50000E944E014FC07A8A698A1C8A1B8A5E8A57
:101F60004D8A63E571E0CE0141960E94940C632D89
:101F700070E0CE0141960E94BC0CBDE0B31510F498
:101F8000E2EF3E0E832D8770806480937C00809109
:101F90007A00806480937A0080917A0086FDFCCF7D
:101FA000609178007091790007CFE32DF0E0E15C5B
:101FB000FE4FE491E33039F148F4E130B9F0E2301A
:101FC000E9F0003811050CF060CFC0CFE73029F1FF
:101FD000E83059F1E430A9F7809180008062809365
:101FE000800010938B0000938A0004C084B5806841
:101FF00084BD07BDF501178E168EF5CD84B58062C0
:1020000084BD08BDF7CF80918000806880938000F8
:102010001093890000938800EDCF8091B000806814
:102020008093B0000093B300E5CF8091B000806250
:102030008093B0000093B400DDCFE32DF0E0FA838D
:10204000E983BFE1B315B0F2EE0FFF1FED5AFE4F6B
:10205000259134912115310569F2E1E022323E07E4
:1020600049F2C301F9010995C5CF33243A94CE0151
:102070004C960E943A0C2C8D3D8DC9018E199F09FA
:1020800048A159A1481B590B3A8329835C834B8390
:102090005E834D83E32DF0E0FA8BE98B5FE153150E
:1020A00008F4A8CFEE0FFF1FED56FE4F2591349197
:1020B0002115310509F49ECF81E02132380709F45A
:1020C00099CFB301CE014196F901099593CF8A8D3D
:1020D0009B8D8E0D9F1DFA82E9829C838B83E8166F
:1020E000F90608F080CDC3010E943A0CD5015F9635
:1020F0001C921E925E9777CDF50112A211A2028466
:10210000F385E02D12826FCD0E9410022B013C015D
:10211000F50102851385D80112969C90129781A132
:1021200092A18130910509F08AC091102FC0408E94
:10213000518E628E738E12A211A212961C92D5013C
:1021400090968C919097815090968C93892DAAA10E
:10215000BBA10FB6F894BEBF0FBEADBFA3960FB61E
:10216000F894DEBF0FBECDBFDF91CF911F910F91CD
:10217000FF90EF90DF90CF90BF90AF909F908F90A7
:102180007F906F905F904F903F90089580899189E4
:10219000A289B389A3019201281B390B4A0B5B0B5F
:1021A000DA01C901893136EF9307A105B10530F095
:1021B00012A211A2D80112961C92BDCC893C9F4A52
:1021C000A105B10598F4F50184899589A689B78997
:1021D000A3019201281B390B4A0B5B0BDA01C901E1
:1021E000893C9F4AA105B10508F424CCF501808DF6
:1021F000918DA28DB38DA3019201281B390B4A0B3F
:102200005B0BDA01C90181379741A105B10508F4DB
:1022100011CCD12CC12CF12CE12C10E000E030E0ED
:1022200020E050E040E066E0C5010E949C11D5012D
:1022300058964D925D926D927C925B9780CF892BE0
:1022400009F0F8CB808D918DA28DB38D481A590A73
:102250006A0A7B0A992079F0F1E74F16F7E15F06E9
:102260006104710408F4E6CBD80112961C92F501C2
:1022700012A211A260CCF9E84F16F3E15F066104E7
:10228000710408F4D7CBD8018D919C91DC01ED91BC
:10229000FC910680F781E02D099581E0F8018283A9
:1022A00081E090E0D5015D969C938E935C971C969F
:1022B0002D913C91F90101900020E9F731978F01B0
:1022C000021B130BD12CC12CF12CE12C41E050E06E
:1022D0006DE1C5010E949C11F50184899589A6894B
:1022E000B789808F918FA28FB38FA4CB7A8A698AA6
:1022F0001C8A1B8A5E8A4D8A63E571E0CE01419695
:102300000E94940C6FEF70E0CE0141960E94BC0CCD
:1023100033243A9435CE043647E7140709F4FECD4A
:10232000063757E7150709F4A0CE0136174709F01D
:1023300071CD33243A9489CD2F923F924F925F9280
:102340006F927F928F929F92AF92BF92CF92DF92C5
:10235000EF92FF920F931F93CF93DF93CDB7DEB72A
:10236000C854D1090FB6F894DEBF0FBECDBF4C01E3
:1023700068AF5AAF49AF27963FAF2EAF27971CAF34
:102380000BAF2996FFAEEEAE2997DEAECDAEDC01E7
:102390001A96ED91FC911B978281882309F4C1C1A3
:1023A000662351F0663041F06D3131F091968D9198
:1023B0009C91019709F0B5C188AD8F50863080F5AA
:1023C000F4014489558966897789C088D188E28873
:1023D000F388C416D506E606F70610F46A017B01F9
:1023E000F2E4CF0ED11CE11CF11C0E941002A701E7
:1023F0009601261B370B480B590BDA01C901B7FDB3
:10240000AAC1C4010E94E10C0E941002A70196011A
:10241000261B370B480B590BDA01C901B7FFF1CF67
:10242000F40180819181019709F0C5C082E090E0BC
:1024300091838083228133814481558166817781B4
:1024400080859185A0E0FE017A960E94A41D09F482
:1024500095C1FBABEAAB1DAA1CAA88E190E09FAB3B
:102460008EAB67E471E0CE01C2960E94940CD40159
:1024700012964C90129713965C90139714966C904A
:10248000149715967C9015971696BC91BFAFF401E2
:10249000F7812196FFAF2197D40118962C901897B9
:1024A00019963C90198E9201A3016FAD7F2FC10147
:1024B000A0E00E94A41D09F457C1FE01799625965B
:1024C000FFAFEEAF259727E130E023963FAF2EAF69
:1024D00023972AE0A22EB12CC12CD12CE12CF12C77
:1024E00000E010E09201A3016FAD21967FAD21972E
:1024F000C1010E94451DF901E85AFE4F80812596D1
:10250000AEADBFAD25978E932596BFAFAEAF2597E5
:102510002396EEADFFAD239731972396FFAFEEAF35
:1025200023973AE0A32EB12CC12CD12CE12CF12C15
:1025300000E010E09201A3016FAD21967FAD2197DD
:10254000C1010E94471D29013A016FAF21967FAF5B
:1025500021971C01A0E00E94A41D39F023964EADE6
:102560005FAD2397452B09F0B4CF23966EAD7FADB9
:1025700023976C0F7D1F6E5F7F4F09F0FAC0EAA9A9
:10258000FBA98CA99DA99C012F5F3F4F3DAB2CABB4
:10259000E80FF91F10820CA91DA9015011092AA9E1
:1025A0003BA9D12CC12CF12CE12C50E040E065E19D
:1025B000C4010E949C1129AD3AAD232BB9F4D4017A
:1025C0005E960D90BC91A02DBAAFA9AFAB2B71F464
:1025D000F401848D958D019609F4E5C0958F848F63
:1025E000F401048CF58DE02DFAAFE9AF27962EADFE
:1025F0003FAD27970BAD1CAD0B5F1F4F232B11F485
:1026000005E010E029964EAD5FAD299790E080E09F
:10261000452B11F08DAD9EAD080F191F58AD598394
:1026200089AD9AAD9827892798279B838A838BAD9C
:102630009CADADADBEAD8A0F9B1F9827892798270B
:102640009D838C83D4011A96ED91FC9180819181B8
:10265000DC01ED91FC910280F381E02D45E050E03A
:10266000BE016F5F7F4F099560E070E0CB010E9473
:10267000DD01B8AD85E0E82EF12CBB2309F444C0A0
:10268000EBADFCAD95E0E92EF12CEF2BE9F0D40198
:102690001A96ED91FC9180819181DC01ED91FC9184
:1026A0000280F381E02D4BAD5CAD27966EAD7FAD22
:1026B00027970995EBACFCACB5E0EB0EF11C60E0A4
:1026C00070E0CB010E94DD01EDADFEADEF2BE1F03E
:1026D000D4011A96ED91FC9180819181DC01ED91FC
:1026E000FC910280F381E02D4DAD5EAD29966EAD7B
:1026F0007FAD29970995EDADFEADEE0EFF1E60E0B2
:1027000070E0CB010E94DD01E016F10609F450C033
:10271000D40192961C921E9291971A96ED91FC917B
:102720001282C85BDF4F0FB6F894DEBF0FBECDBF7D
:10273000DF91CF911F910F91FF90EF90DF90CF909D
:10274000BF90AF909F908F907F906F905F904F90D1
:102750003F902F900895D40190968C91811160CE76
:10276000C4010E94E10C5CCE80E3888FBE01685EEC
:102770007F4FCE01C2960E94940C0DCFFA83E9835D
:102780001C821B8284E090E09E838D8366E571E06D
:10279000CE0101960E94940C0B811C8101501109FD
:1027A00029813A81FECE81E090E0958F848F18CF09
:1027B0000E941002F401648B758B868B978BB1CFCE
:1027C000AF92BF92CF92DF92EF92FF920F931F933F
:1027D000CF93DF93CDB7DEB7CD5CD1090FB6F894B8
:1027E000DEBF0FBECDBF5C01CE0188579F4FC853DF
:1027F000DF4F99838883C85CD040C653DF4F19826E
:102800001882CA5CD04080E490E0C453DF4F9983C3
:102810008883CC5CD04069E671E0CE0188539F4F3D
:102820000E94940C6EE671E0CE0188539F4F0E9487
:10283000940C47E850E060E770E0CE0101960E94FA
:10284000A11AC653DF4FC880D980CA5CD04081E04E
:10285000C81AD108C853DF4FE880F980C85CD0405F
:1028600007E810E09E012F5F3F4F50E040E061E13C
:10287000C5010E949C11C353DF4F0FB6F894DEBF11
:102880000FBECDBFDF91CF911F910F91FF90EF90C1
:10289000DF90CF90BF90AF9008951F920F920FB628
:1028A0000F9211242F933F938F939F93AF93BF93D6
:1028B0008091790290917A02A0917B02B0917C0282
:1028C0003091780223E0230F2D3758F50196A11D92
:1028D000B11D209378028093790290937A02A0939D
:1028E0007B02B0937C0280917D0290917E02A09148
:1028F0007F02B09180020196A11DB11D80937D02DF
:1029000090937E02A0937F02B0938002BF91AF911B
:102910009F918F913F912F910F900FBE0F901F901D
:10292000189526E8230F0296A11DB11DD2CF1F9244
:102930000F920FB60F9211242F933F934F935F93F3
:102940006F937F938F939F93AF93BF93EF93FF9377
:1029500087ED92E00E949A02FF91EF91BF91AF91B3
:102960009F918F917F916F915F914F913F912F91A7
:102970000F900FBE0F901F9018951F920F920FB6D9
:102980000F9211242F938F939F93EF93FF93E091D6
:10299000E702F091E8028081E091ED02F091EE0211
:1029A00082FD1BC090818091F0028F5F8F73209118
:1029B000F102821741F0E091F002F0E0E952FD4FA0
:1029C000958F8093F002FF91EF919F918F912F91BE
:1029D0000F900FBE0F901F9018958081F4CF1F921B
:1029E0000F920FB60F9211242F933F934F935F9343
:1029F0006F937F938F939F93AF93BF93EF93FF93C7
:102A00008091B900887F803609F44AC0F0F5883299
:102A100009F4A7C018F5803109F49BC0B8F48823E5
:102A200009F4F9C0883009F494C0FF91EF91BF9187
:102A3000AF919F918F917F916F915F914F913F9156
:102A40002F910F900FBE0F901F901895883109F4A9
:102A500088C0803251F78093AB0214C0803409F4EF
:102A60009DC040F48033B9F38833F9F68093AB020C
:102A700085ECB0C0803509F485C0883509F496C06E
:102A8000883499F60E945C0CD0CF883909F48CC048
:102A900038F5883729F050F4883611F0803729F658
:102AA00083E08093AD021092570257C0883809F432
:102AB0007BC0803919F0803809F0B7CF8091570278
:102AC000803208F071C0E091570281E08E0F809350
:102AD00057028091BB00F0E0E95CFD4F80833DC070
:102AE000803B39F0E0F4803A09F479C0883A09F083
:102AF0009CCF84E08093AD02109236021092350292
:102B0000E0918302F0918402099580913502811150
:102B10000FC081E0809335021092150209C0803CFD
:102B200009F4A6CF883C09F4A3CF883B09F07DCFF8
:102B3000E091360281E08E0F80933602F0E0EB5E8A
:102B4000FD4F80818093BB009091360280913502C9
:102B500029C0809188028093BB0085EC8093BC00E3
:102B600064CF9091AA028091A902981758F5E0913C
:102B7000AA0281E08E0F8093AA02F0E0E757FD4F92
:102B80008081E9CFE091AA0281E08E0F8093AA02B2
:102B90008091BB00F0E0E757FD4F80839091AA023F
:102BA0008091A9029817C8F285E8D8CFE091AA02CF
:102BB00081E08E0F8093AA028091BB00F0E0E7577E
:102BC000FD4F80838091AC0281115CCF81E08093C6
:102BD000870284EA8093BC001092AD0226CF85EC78
:102BE0008093BC001092AD0280915702803230F485
:102BF000E0915702F0E0E95CFD4F108260915702CE
:102C000070E0E0918102F091820287E392E0099501
:102C1000109257020ACF1092AB0234CFE7EDF2E0E8
:102C20001382128288EE93E0A0E0B0E08483958363
:102C3000A683B7832AE031E03183208325EC30E09E
:102C40003587248724EC30E03787268720EC30E076
:102C5000318B208B21EC30E0338B228B22EC30E067
:102C6000358B248B26EC30E0378B268B118E128E21
:102C7000138E148EE4E7F3E013821282848395832B
:102C8000A683B7838CE191E091838083ABECB3E0C2
:102C900011961C921E9212961C921297E8EAF3E08B
:102CA0001182108212821382148215821682178278
:102CB00010861186B387A287158614861786168616
:102CC000108A118A128A138A148A158A168A178A18
:102CD000108E118E128E138E158E148E178E168EE8
:102CE00010A212A211A2E0E9F3E0138212828EE296
:102CF00091E09183808382E084838FEF858383E0FA
:102D0000868384E0878385E0808786E0818787E00B
:102D100082871386148615861686178681E00E94A0
:102D20005C08E0E8F3E01182108280E4838310867F
:102D300011861286138614861586168617860895C0
:102D4000CF93DF93CDB7DEB7AA970FB6F894DEBF67
:102D50000FBECDBF789484B5826084BD84B5816098
:102D600084BD85B5826085BD85B5816085BD809156
:102D70006E00816080936E001092810080918100CE
:102D800082608093810080918100816080938100C6
:102D9000809180008160809380008091B100846088
:102DA0008093B1008091B00081608093B0008091E9
:102DB0007A00846080937A0080917A0082608093A8
:102DC0007A0080917A00816080937A0080917A0005
:102DD000806880937A001092C100E091E702F09140
:102DE000E80282E08083E091E302F091E402108245
:102DF000E091E502F091E6028FEC80831092EF0201
:102E0000E091EB02F091EC0286E08083E091E90230
:102E1000F091EA02808180618083E091E902F09183
:102E2000EA02808188608083E091E902F091EA0201
:102E3000808180688083E091E902F091EA028081DC
:102E40008F7D80838CE791E09093B5038093B403EA
:102E50000E941002DC01CB0188589341A109B109FD
:102E60008093BC039093BD03A093BE03B093BF03B4
:102E70008093B8039093B903A093BA03B093BB03B4
:102E80008093C0039093C103A093C203B093C30384
:102E9000E091B203F091B30387ED92E091838083D8
:102EA000E091B203F091B30312821092CA03109220
:102EB000C9030E9410026B017C018091C9039091AB
:102EC000CA03019781F00E9410026C197D098E09D6
:102ED0009F09603576448105910528F488EA93E0DE
:102EE0000E94E10CEACF8091C9039091CA03019737
:102EF000B9F60E94B60484E00E945C0880E00E945B
:102F0000FD086DE971E080E993E00E94380C60ED06
:102F100077E080E090E00E94DD010E9454088091FB
:102F2000800390918103892BA9F486E090E00E94B0
:102F30005E19FC0180918303808384E793E0928390
:102F40008183138280E290E095838483F0938103F0
:102F5000E0938003E0908003F09081030E94B60428
:102F600011E0F7011383C7010E94C806811109C04F
:102F70000E94FD0868EA71E080E993E00E94380C45
:102F8000FFCF80E090E1A0E0B0E0809384039093D5
:102F90008503A0938603B09387038AE090E0A0E0C6
:102FA000B0E08093880390938903A0938A03B09341
:102FB0008B0380E090E0A0E0B0E480938C039093DA
:102FC0008D03A0938E03B0938F0380918003909123
:102FD00081031FA218A619A61AA69F8B8E8B198E85
:102FE000188E19A385E090E09F8F8E8F1AA302E0C0
:102FF00008A340E050E160E070E0CE0146960E94F8
:10300000FC0580918003909181031A8A1B8A1C8A97
:103010001D8A9A8389831C821B821C871A861986C3
:103020001D870B874FE959E360E070E0CE01019600
:103030000E94FC058093820380E00E94FD086CEBF7
:1030400071E080E993E00E94380C6CED75E080E05F
:1030500090E00E94DD010E94540811E02224239494
:10306000312C88EA93E00E94E10C809180039091DA
:1030700081031A8A1B8A1C8A1D8A9A8389831C826F
:103080001B821C873A8629861D870B87BE016A5ED4
:103090007F4FCE0101960E941109809382036E89B1
:1030A0007F89072E000C880B990B0E94FC1B2AE0DD
:1030B00037ED43E25CE30E94B11C6B017C0180911F
:1030C0008003909181031A8A1B8A1C8A1D8A9A8325
:1030D00089831C821B821C8782E090E09A87898703
:1030E0001D870B87BE016A5E7F4FCE0101960E944D
:1030F0001109809382036E897F8983E076956795B5
:103100008A95E1F7660F771F660F771F072E000C71
:10311000880B990B0E94FC1B2FE632E143E85AE32F
:103120000E94B11C2B013C0120E030E04AE754E44E
:10313000C701B6010E94591B9B01AC01C301B2013A
:103140000E94E81A2B013C012AE037ED43E25CE3E0
:10315000C701B6010E94591B6B017C0120E030E0E1
:103160004AE754E40E94591BA30192010E94B11C3A
:103170004B015C010E94540880E00E94FD0869EC4C
:1031800071E080E993E00E94380C22E0B301A201D3
:1031900080E993E00E944A0B6DEC71E080E993E0D6
:1031A0000E94380C81E00E94FD0860ED71E080E92A
:1031B00093E00E94380C23E0B701A60180E993E078
:1031C0000E944A0B64ED71E080E993E00E94380CA4
:1031D00082E00E94FD0868ED71E080E993E00E94C2
:1031E000380C20E030E04AE754E4C501B4010E9405
:1031F000591BAB01BC0123E080E993E00E944A0B1C
:103200006CED71E080E993E00E94380C6FED71E0A5
:1032100087ED92E00E94380C22E0B301A20187ED15
:1032200092E00E944A0B69EE71E087ED92E00E9405
:10323000380C6FEE71E087ED92E00E94380C22E0CE
:10324000B701A60187ED92E00E944A0B6BEF71E097
:1032500087ED92E00E94380C62E072E087ED92E028
:103260000E94380C22E0B501A40187ED92E00E9493
:103270004A0B6DE072E087ED92E00E94EF0A61E197
:1032800072E087ED92E00E94EF0A68EE73E080E062
:1032900090E00E94DD01E0E0F0E0EF2B09F4E1CEE8
:1032A0000E948602882309F4DCCE0E940000D9CE59
:1032B00080918003909181030C94FA190F931F93CE
:1032C000CF93DF938230910510F482E090E0E0919B
:1032D000D003F091D10330E020E0B0E0A0E03097DF
:1032E00099F42115310509F44AC0281B390B243003
:1032F0003105D8F58A819B816115710589F1FB0142
:1033000093838283FE0111C0408151810281138128
:1033100048175907E0F04817590799F4109761F0DA
:1033200012960C93129713961C933296CF01DF914D
:10333000CF911F910F9108950093D0031093D10363
:10334000F4CF2115310551F04217530738F0A90188
:10335000DB019A01BD01DF01F801C1CFEF01F9CF17
:103360009093D1038093D003CDCFFE01E20FF31FE2
:10337000819391932250310939832883D7CF2091AB
:10338000CE033091CF03232B41F4209102013091E1
:1033900003013093CF032093CE032091000130919D
:1033A00001012115310541F42DB73EB740910401CB
:1033B00050910501241B350BE091CE03F091CF0312
:1033C000E217F307A0F42E1B3F0B2817390778F0FC
:1033D000AC014E5F5F4F2417350748F04E0F5F1F5B
:1033E0005093CF034093CE03819391939FCFF0E00E
:1033F000E0E09CCFCF93DF930097E9F0FC01329798
:1034000013821282A091D003B091D103ED0130E07C
:1034100020E01097A1F420813181820F931F209129
:10342000CE033091CF032817390709F061C0F0931C
:10343000CF03E093CE03DF91CF910895EA01CE1739
:10344000DF07E8F54A815B819E0141155105B1F71F
:10345000E901FB83EA8349915991C40FD51FEC1709
:10346000FD0761F4808191810296840F951FE90127
:1034700099838883828193819B838A83F0E0E0E053
:1034800012968D919C9113970097B9F52D913C91CF
:103490001197CD010296820F931F2091CE03309198
:1034A000CF032817390739F6309751F51092D10319
:1034B0001092D003B093CF03A093CE03BCCFD3839D
:1034C000C28340815181840F951FC817D90761F4C9
:1034D0004E5F5F4F88819981480F591F5183408308
:1034E0008A819B81938382832115310509F0B0CFB6
:1034F000F093D103E093D0039ECFFD01DC01C0CF58
:1035000013821282D7CFFC0188279927E894219152
:103510002032E9F3293010F02E30C8F32B3241F07D
:103520002D3239F4689404C00E94B51A820F911D9F
:10353000219120532A30C0F31EF4909581959F4F1E
:103540000895FB01DC0102C005900D9241505040EE
:10355000D8F70895BB274A3031F4992322F4BDE20D
:10356000909581959F4F0C94BE1A7AE0979F902D6D
:10357000879F802D910D11240895BB27FB015527AE
:10358000AA27880F991FAA1FA41710F0A41B8395C0
:103590005051B9F7A05DAA3308F0A95DA193009737
:1035A00079F7B111B1931192CB010C94D71ADC01C8
:1035B000FC01672F71917723E1F7329704C07C916A
:1035C0006D9370836291AE17BF07C8F3089550588A
:1035D000BB27AA270E94FF1A0C94721C0E94641C2D
:1035E00038F00E946B1C20F039F49F3F19F426F448
:1035F0000C94611C0EF4E095E7FB0C945B1CE92F26
:103600000E94831C58F3BA17620773078407950753
:1036100020F079F4A6F50C94A51C0EF4E0950B2E81
:10362000BA2FA02D0B01B90190010C01CA01A00114
:103630001124FF27591B99F0593F50F4503E68F16F
:103640001A16F040A22F232F342F4427585FF3CFB0
:10365000469537952795A795F0405395C9F77EF481
:103660001F16BA0B620B730B840BBAF09150A1F0CA
:10367000FF0FBB1F661F771F881FC2F70EC0BA0F50
:10368000621F731F841F48F4879577956795B795D8
:10369000F7959E3F08F0B0CF9395880F08F09927D3
:1036A000EE0F9795879508950E94371C08F481E0E6
:1036B00008950E946D1B0C94721C0E946B1C58F0A4
:1036C0000E94641C40F029F45F3F29F00C945B1CBD
:1036D00051110C94A61C0C94611C0E94831C68F36D
:1036E0009923B1F3552391F3951B550BBB27AA27BB
:1036F00062177307840738F09F5F5F4F220F331FF5
:10370000441FAA1FA9F335D00E2E3AF0E0E832D0BC
:1037100091505040E695001CCAF72BD0FE2F29D0BF
:10372000660F771F881FBB1F261737074807AB0791
:10373000B0E809F0BB0B802DBF01FF2793585F4F06
:103740003AF09E3F510578F00C945B1C0C94A61C3B
:103750005F3FE4F3983ED4F3869577956795B795E8
:10376000F7959F5FC9F7880F911D9695879597F9F3
:103770000895E1E0660F771F881FBB1F621773076C
:103780008407BA0720F0621B730B840BBA0BEE1F81
:1037900088F7E09508950E948B1C88F09F5798F059
:1037A000B92F9927B751B0F0E1F0660F771F881F46
:1037B000991F1AF0BA95C9F714C0B13091F00E9460
:1037C000A51CB1E008950C94A51C672F782F8827BD
:1037D000B85F39F0B93FCCF3869577956795B39587
:1037E000D9F73EF490958095709561957F4F8F4FF6
:1037F0009F4F0895E89409C097FB3EF490958095FB
:10380000709561957F4F8F4F9F4F9923A9F0F92FA6
:1038100096E9BB279395F695879577956795B79524
:10382000F111F8CFFAF4BB0F11F460FF1BC06F5F0A
:103830007F4F8F4F9F4F16C0882311F096E911C01C
:10384000772321F09EE8872F762F05C0662371F03D
:1038500096E8862F70E060E02AF09A95660F771F51
:10386000881FDAF7880F9695879597F90895990F2D
:103870000008550FAA0BE0E8FEEF16161706E8073A
:10388000F907C0F012161306E407F50798F0621B5B
:10389000730B840B950B39F40A2661F0232B242B30
:1038A000252B21F408950A2609F4A140A6958FEF4F
:1038B000811D811D089597F99F6780E870E060E0A1
:1038C00008959FEF80EC089500240A9416161706B9
:1038D00018060906089500240A9412161306140601
:1038E00005060895092E0394000C11F4882352F064
:1038F000BB0F40F4BF2B11F460FF04C06F5F7F4F1C
:103900008F4F9F4F089557FD9058440F551F59F002
:103910005F3F71F04795880F97FB991F61F09F3FBC
:1039200079F087950895121613061406551FF2CFE5
:103930004695F1DF08C0161617061806991FF1CF35
:1039400086957105610508940895E894BB2766275C
:103950007727CB0197F908950E94371C08F48FEF61
:1039600008950E94C41C0C94721C0E94641C38F0C0
:103970000E946B1C20F0952311F00C945B1C0C949E
:10398000611C11240C94A61C0E94831C70F3959F4B
:10399000C1F3950F50E0551F629FF001729FBB2746
:1039A000F00DB11D639FAA27F00DB11DAA1F649FE2
:1039B0006627B00DA11D661F829F2227B00DA11D95
:1039C000621F739FB00DA11D621F839FA00D611D1B
:1039D000221F749F3327A00D611D231F849F600D3C
:1039E000211D822F762F6A2F11249F5750409AF065
:1039F000F1F088234AF0EE0FFF1FBB1F661F771FF1
:103A0000881F91505040A9F79E3F510580F00C94BB
:103A10005B1C0C94A61C5F3FE4F3983ED4F38695A0
:103A200077956795B795F795E7959F5FC1F7FE2B5B
:103A3000880F911D9695879597F908950E94371CD8
:103A4000880B990B0895A1E21A2EAA1BBB1BFD013E
:103A50000DC0AA1FBB1FEE1FFF1FA217B307E4076D
:103A6000F50720F0A21BB30BE40BF50B661F771FC5
:103A7000881F991F1A9469F76095709580959095A5
:103A80009B01AC01BD01CF010895689401C0E89489
:103A90008F929F92CF93DF930E94531DDF91CF911E
:103AA0009F908F90089588249924F401E401B0E454
:103AB0009F93AA279A158B049C04ED05FE05CF055C
:103AC000D007A10798F4AD2FDC2FCF2FFE2FE92DC3
:103AD000982C892E982F872F762F652F542F432FC0
:103AE000322F2227B85031F7BF9127C01B2EBF912C
:103AF000BB27220F331F441F551F661F771F881FC8
:103B0000991F881C991CEE1FFF1FCC1FDD1FAA1FC9
:103B1000BB1F8A149B04EC05FD05CE05DF05A0073D
:103B2000B10748F08A189B08EC09FD09CE09DF09A6
:103B3000A00BB10B21601A94E1F62EF49401AF01B1
:103B4000BE01CD01000C08950024A7FD00942A17A2
:103B50003005400550056005700580059005089505
:103B6000EE0FFF1F0590F491E02D0994FB01DC019D
:103B700002C001900D9241505040D8F70895FB01CA
:103B8000DC018D91019080190110D9F3990B0895F2
:103B9000FB01DC014150504048F001900D920020A3
:103BA000C9F701C01D9241505040E0F7089510E060
:103BB000CBEED0E004C0FE010E94B01D2196CC3EA9
:083BC000D107C9F7F894FFCF0B
:103BC8000000D203800000000000BC021C02490271
:103BD80009037A0258026C02000000004307160726
:103BE800720722010F07FC06ED06000000000B0912
:103BF8001C027207B7076E616E00696E66006F7609
:103C08006600696E006F75740070776D00707500DE
:103C180064770061770062003031323334353637EB
:103C2800383961626364656600746D706C00544D68
:103C3800504C325746753355306864006E75614391
:103C480037487236306D4C4B7277355F67687067EE
:103C580050426E6C2D754F536F59574F004D656428
:103C680069646F7220444300494E41323139206EF5
:103C78006F2064657465637461646F00494E4132F6
:103C88003139206C6973746F00563A200020560051
:103C9800493A2000206D4100503A20002057005634
:103CA8006F6C74616A653A20002056207C200043BE
:103CB8006F727269656E74653A2000206D41207CD0
:103CC8002000506F74656E6369613A2000206D575B
:043CD800000D0A00D1
:00000001FF
