:100000000C945D000C9485000C9485000C94850084
:100010000C9485000C9485000C9485000C9485004C
:100020000C9485000C9485000C9485000C9485003C
:100030000C9485000C9485000C9485000C9485002C
:100040000C941E060C9485000C948E060C94680685
:100050000C9485000C9485000C9485000C9485000C
:100060000C94C0060C9485000000000800020100FA
:100070000003040700000000000000000000000072
:10008000250028002B0000000000240027002A0083
:10009000040404040404040402020202020203032E
:1000A0000303030301020408102040800102040836
:1000B0001020010204081020DF0711241FBECFEF1B
:1000C000D8E0DEBFCDBF11E0A0E0B1E0EEEAFBE199
:1000D00002C005900D92AE39B107D9F723E0AEE921
:1000E000B1E001C01D92A232B207E1F710E0CDE508
:1000F000D0E004C02197FE010E94CF0DCC35D1077E
:10010000C9F70E9435080C94D50D0C94000090E0BE
:10011000FC01EC55FF4F249180579F4FFC018491C7
:10012000882399F090E0880F991FFC01EA57FF4F50
:10013000A591B491FC01E458FF4F859194918FB73C
:10014000F894EC91E22BEC938FBF089590E0FC01C2
:10015000E859FF4F2491FC01EC55FF4F3491FC010D
:10016000E057FF4FE491EE23C9F0222339F023300A
:1001700001F1A8F4213019F1223029F1F0E0EE0F5D
:10018000FF1FE458FF4FA591B4918FB7F894EC91FD
:10019000611126C030953E233C938FBF08952730D0
:1001A000A9F02830C9F0243049F7809180008F7D74
:1001B00003C0809180008F7780938000DFCF84B56B
:1001C0008F7784BDDBCF84B58F7DFBCF8091B0006E
:1001D0008F778093B000D2CF8091B0008F7DF9CF20
:1001E0003E2BDACF3FB7F89480915D0290915E028A
:1001F000A0915F02B091600226B5A89B05C02F3F79
:1002000019F00196A11DB11D3FBFBA2FA92F982F3C
:100210008827BC01CD01620F711D811D911D42E037
:10022000660F771F881F991F4A95D1F708958F92FF
:100230009F92AF92BF92CF92DF92EF92FF924B01CB
:100240005C010E94F2006B017C010E94F2006C19BB
:100250007D098E099F09683E734081059105A8F3C9
:1002600021E0821A9108A108B10888EEC80E83E047
:10027000D81EE11CF11C81149104A104B10429F7DA
:10028000FF90EF90DF90CF90BF90AF909F908F90B6
:1002900008958091570290915602891B990B0895F9
:1002A00008950895AF92BF92CF92DF92EF92FF929E
:1002B0000F931F93CF93DF936C017B018B01040F8E
:1002C000151FEB015E01AE18BF08C017D10759F02A
:1002D0006991D601ED91FC910190F081E02DC6016C
:1002E0000995892B79F7C501DF91CF911F910F9166
:1002F000FF90EF90DF90CF90BF90AF900895FC01FA
:10030000538D448D252F30E0842F90E0821B930B7A
:10031000541710F0CF96089501970895FC01918D20
:10032000828D981761F0A28DAE0FBF2FB11D5D9623
:100330008C91928D9F5F9F73928F90E008958FEFC5
:100340009FEF0895FC01918D828D981731F0828D79
:10035000E80FF11D858D90E008958FEF9FEF0895D0
:10036000FC01918D228D892F90E0805C9F4F821B34
:1003700091098F739927089581E692E00E94B00158
:1003800021E0892B09F420E0822F089580E090E09D
:10039000892B29F00E94BC0181110C940000089562
:1003A000FC01A48DA80FB92FB11DA35ABF4F2C91EA
:1003B000848D90E001968F739927848FA689B789E1
:1003C0002C93A089B1898C91837080648C93938DD8
:1003D000848D981306C00288F389E02D80818F7D7B
:1003E00080830895EF92FF920F931F93CF93DF9333
:1003F000EC0181E0888F9B8D8C8D98131AC0E88961
:10040000F989808185FF15C09FB7F894EE89FF892F
:100410006083E889F98980818370806480839FBFCD
:1004200081E090E0DF91CF911F910F91FF90EF90CD
:100430000895F62E0B8D10E00F5F1F4F0F731127DD
:10044000E02E8C8D8E110CC00FB607FCFACFE88918
:10045000F989808185FFF5CFCE010E94D001F1CFCF
:10046000EB8DEC0FFD2FF11DE35AFF4FF0829FB78C
:10047000F8940B8FEA89FB8980818062CFCFCF937C
:10048000DF93EC01888D8823B9F0AA89BB89E889BC
:10049000F9898C9185FD03C0808186FD0DC00FB662
:1004A00007FCF7CF8C9185FFF2CF808185FFEDCFE0
:1004B000CE010E94D001E9CFDF91CF910895089538
:1004C0002091BF01260F3327331F21323105ECF471
:1004D00020913002FC0190E080E0243069F082E05D
:1004E0000895A091BF012191AC0141565E4FA40F28
:1004F000B52FB11D2C930196861798F38091BF01FB
:10050000680F6093BF0180E0089581E00895109224
:10051000300281E080932F0210922A0261E082E192
:100520000E94A60061E083E10E94A600E9EBF0E0F2
:1005300080818E7F808380818D7F808388E480931B
:10054000B80085E48093BC000895CF93DF9391E0D9
:1005500090939E018823B9F0C091B800D091BA0061
:100560008091BC008A7B8093BC0060E082E10E94A5
:10057000A60060E083E10E94A6000E948702D0935B
:10058000BA00C093B800DF91CF9108950895E0912B
:10059000560280915702E81730F4F0E0EA5CFD4F14
:1005A000808190E008958FEF9FEF0895909156021B
:1005B000809157022FEF3FEF981748F4E92FF0E0B2
:1005C000EA5CFD4F208130E09F5F90935602C901A5
:1005D0000895CF92DF92EF92FF920F931F93CF93E4
:1005E000DF937C01CB018A012091E601222389F06F
:1005F000EB016B01C40ED51ECC15DD0569F06991C8
:10060000D701ED91FC910190F081E02DC701099592
:10061000F3CF642F0E946002C801DF91CF911F9138
:100620000F91FF90EF90DF90CF900895CF93DF93DD
:100630001F92CDB7DEB769832091E6012223F9F03E
:1006400020910902203258F021E030E0FC01338390
:10065000228390E080E00F90DF91CF910895809108
:10066000E701E82FF0E0E851FE4F998190838F5F1A
:100670008093E7018093090281E090E0ECCF61E094
:10068000CE0101960E946002F7CF90E080E00895CD
:10069000CF93DF93EC0160E08E810E94A60061E0C1
:1006A0008E810E94A60060E08E810E94A6008BE8E9
:1006B00091E00197F1F7DF91CF910895CF92DF920A
:1006C000EF92FF920F931F93CF93DF936C017C0106
:1006D00087E0E80EF11CD0E0C0E0062F10E0B80182
:1006E0000C2E02C0759567950A94E2F76170F701C8
:1006F00081917F010E94A6002196C430D10579F72F
:10070000C601DF91CF911F910F91FF90EF90DF9085
:10071000CF900C944803CF92DF92EF92FF920F9309
:100720001F93CF93DF93EC01F62E642F8C810E94F0
:10073000A6008D818F3F19F060E00E94A6000F2D6A
:1007400010E08F8584FF25C06E0187E0C80ED11CA4
:10075000F12CE12CB8010E2C02C0759567950A9416
:10076000E2F76170F60181916F010E94A600FFEF30
:10077000EF1AFF0A88E0E816F10461F7CE01DF9175
:10078000CF911F910F91FF90EF90DF90CF900C943D
:100790004803B80184E0759567958A95E1F7CE0125
:1007A0000E945E036F2DCE01DF91CF911F910F91BB
:1007B000FF90EF90DF90CF900C945E0340E0682FA5
:1007C0008AE093E00C948B0381E00E94DE038BE3CC
:1007D0009FE10197F1F70895CF93DF93813029F0DE
:1007E0009091190398609093190380931D031092C0
:1007F0001E0380E480931F0380E18093200380E543
:100800008093210380910E030E94870080910F0343
:100810008F3F11F00E948700809110030E94870093
:10082000CAE0D3E09E012A5033408091190384FD31
:100830000AC084E090E02196281739073CF48E81A5
:100840000E948700EFCF88E090E0F5CF8BE39DE03A
:100850000197F1F760E080910E030E94A60060E02E
:10086000809110030E94A60080910F038F3F19F022
:1008700060E00E94A6008091190384FD34C063E00B
:100880008AE093E00E945E03CBE4D6E4CE010197B8
:10089000F1F763E08AE093E00E945E032197F1F7AD
:1008A00063E08AE093E00E945E0383E592E00197B3
:1008B000F1F762E08AE093E00E945E038091190301
:1008C00080620E94DE0384E080931A038CE00E9421
:1008D000DE030E94E40382E080931B0386E0DF9145
:1008E000CF910C94DE0380620E94DE038BE496E4D9
:1008F0000197F1F78091190380620E94DE0383E57E
:1009000092E00197F1F78091190380620E94DE0363
:10091000D5CF90911D03891710F08FEF890FE82F25
:10092000F0E0E65FFC4F848980680C94DE0341E0D0
:100930000E948B0381E090E00895FB01019000206C
:10094000E9F73197AF01461B570BDC01ED91FC91A4
:100950000280F381E02D09948F929F92AF92BF9213
:10096000EF92FF920F931F93CF93DF93CDB7DEB734
:10097000A1970FB6F894DEBF0FBECDBF7C01FA0180
:10098000CB0119A2223008F42AE08E010F5D1F4F1F
:10099000822E912CB12CA12CBF01A50194010E94A3
:1009A000AD0DF901CA016A300CF5605DD8016E9396
:1009B0008D01232B242B252B79F790E080E01097D5
:1009C00021F0BD01C7010E949D04A1960FB6F894C5
:1009D000DEBF0FBECDBFDF91CF911F910F91FF9072
:1009E000EF90BF90AF909F908F900895695CDECF9D
:1009F0002F923F924F925F926F927F928F929F922F
:100A0000AF92BF92CF92DF92EF92FF921F93CF935C
:100A1000DF93EC016A017B01722EAB019601CB01E1
:100A2000B6010E94A80D60E371E0811126C0460165
:100A30005701E894B7F82FEF3FEF4FE75FE7C501A5
:100A4000B4010E94A80D81110CC02FEF3FEF4FE7BA
:100A50005FE7C501B4010E94DE0B64E371E0181684
:100A600064F02FEF3FEF4FE75FE4C701B6010E944C
:100A7000360D1816B4F468E371E0CE01DF91CF9122
:100A80001F91FF90EF90DF90CF90BF90AF909F901D
:100A90008F907F906F905F904F903F902F900C942D
:100AA0009D042FEF3FEF4FE75FECC701B6010E94B7
:100AB000DE0B87FDE0CF20E030E0A901C701B601E1
:100AC0000E94DE0B312C212C87FF0DC0E881F981BB
:100AD0000190F081E02D6DE2CE0109951C01F7FA3D
:100AE000F094F7F8F09410E060E070E080E09FE3AD
:100AF000711641F020E030E040E251E40E94E30B47
:100B00001F5FF6CFA70196010E94720B2B013C01DB
:100B10000E94550C4B015C012AE0BC01A401CE01EE
:100B20000E94AC047C01E20CF31C1123E1F1C5012D
:100B3000B4010E94840C9B01AC01C301B2010E946C
:100B4000710B4B015C01E881F9810190F081E02D8E
:100B50006EE2CE010995E80EF91E115020F120E059
:100B600030E040E251E4C501B4010E943B0D2B018D
:100B70003C010E94550C4B01B12CA12C2AE0B5017F
:100B8000A401CE010E94AC04E80EF91EC501B40117
:100B90000E94840C9B01AC01C301B2010E94710B45
:100BA0004B015C01DACFC701DF91CF911F91FF901C
:100BB000EF90DF90CF90BF90AF909F908F907F90FD
:100BC0006F905F904F903F902F90089585ED8093A8
:100BD000BC008091320290913302A0913402B09116
:100BE00035020796A11DB11D23E0B695A7959795EF
:100BF00087952A95D1F72091BC0024FD03C010925F
:100C000030020895409132025091330260913402D3
:100C100070913502452B462B472B69F30097A105B0
:100C2000B10541F02AE22A95F1F700C00197A10928
:100C3000B109E1CF809131020C94A5021F920F926D
:100C40000FB60F9211242F933F938F939F93AF93DF
:100C5000BF938091590290915A02A0915B02B0918A
:100C60005C023091580223E0230F2D3758F501968E
:100C7000A11DB11D209358028093590290935A02EE
:100C8000A0935B02B0935C0280915D0290915E0242
:100C9000A0915F02B09160020196A11DB11D8093E9
:100CA0005D0290935E02A0935F02B0936002BF91D9
:100CB000AF919F918F913F912F910F900FBE0F9009
:100CC0001F90189526E8230F0296A11DB11DD2CFC3
:100CD0001F920F920FB60F9211242F933F934F93B1
:100CE0005F936F937F938F939F93AF93BF93EF9394
:100CF000FF9381E692E00E94D001FF91EF91BF91B6
:100D0000AF919F918F917F916F915F914F913F91A3
:100D10002F910F900FBE0F901F9018951F920F925A
:100D20000FB60F9211242F938F939F93EF93FF93FE
:100D3000E0917102F09172028081E0917702F0916E
:100D4000780282FD1BC0908180917A028F5F8F7341
:100D500020917B02821741F0E0917A02F0E0EF5996
:100D6000FD4F958F80937A02FF91EF919F918F9124
:100D70002F910F900FBE0F901F9018958081F4CF88
:100D80001F920F920FB60F9211242F933F934F9300
:100D90005F936F937F938F939F93AF93BF93EF93E3
:100DA000FF938091B900887F803609F44AC0F0F53E
:100DB000883209F4A7C018F5803109F49BC0B8F453
:100DC000882309F4F9C0883009F494C0FF91EF91A9
:100DD000BF91AF919F918F917F916F915F914F9153
:100DE0003F912F910F900FBE0F901F901895883153
:100DF00009F488C0803251F780932E0214C08034E9
:100E000009F49DC040F48033B9F38833F9F6809338
:100E10002E0285ECB0C0803509F485C0883509F410
:100E200096C0883499F60E94E605D0CF883909F437
:100E30008CC038F5883729F050F4883611F08037A7
:100E400029F683E0809330021092E10157C0883880
:100E500009F47BC0803919F0803809F0B7CF809150
:100E6000E101803208F071C0E091E10181E08E0F74
:100E70008093E1018091BB00F0E0EF53FE4F80834F
:100E80003DC0803B39F0E0F4803A09F479C0883AFB
:100E900009F09CCF84E0809330021092C001109240
:100EA000BF01E091E401F091E50109958091BF0156
:100EB00081110FC081E08093BF0110929F0109C092
:100EC000803C09F4A6CF883C09F4A3CF883B09F005
:100ED0007DCFE091C00181E08E0F8093C001F0E0F2
:100EE000E156FE4F80818093BB009091C0018091BC
:100EF000BF0129C080912B028093BB0085EC8093B9
:100F0000BC0064CF90912D0280912C02981758F567
:100F1000E0912D0281E08E0F80932D02F0E0E65FDC
:100F2000FD4F8081E9CFE0912D0281E08E0F80930B
:100F30002D028091BB00F0E0E65FFD4F8083909131
:100F40002D0280912C029817C8F285E8D8CFE09145
:100F50002D0281E08E0F80932D028091BB00F0E086
:100F6000E65FFD4F808380912F0281115CCF81E08D
:100F700080932A0284EA8093BC001092300226CF2C
:100F800085EC8093BC00109230028091E1018032A8
:100F900030F4E091E101F0E0EF53FE4F10826091F8
:100FA000E10170E0E091E201F091E30181EC91E078
:100FB00009951092E1010ACF10922E0234CFE1E69A
:100FC000F2E01382128288EE93E0A0E0B0E0848326
:100FD0009583A683B78324E031E03183208325EC19
:100FE00030E03587248724EC30E03787268720ECF3
:100FF00030E0318B208B21EC30E0338B228B22ECE4
:1010000030E0358B248B26EC30E0378B268B118E2D
:10101000128E138E148EEEEFF2E01382128284830E
:101020009583A683B78386E191E091838083EAE08C
:10103000F3E01382128288E291E09183808382E060
:1010400084838FEF858383E0868384E0878385E0D4
:10105000808786E0818787E08287138614861586DD
:101060001686178681E00C94EC03789484B5826030
:1010700084BD84B5816084BD85B5826085BD85B53C
:10108000816085BD80916E00816080936E001092BA
:101090008100809181008260809381008091810035
:1010A00081608093810080918000816080938000C6
:1010B0008091B10084608093B1008091B000816024
:1010C0008093B00080917A00846080937A00809150
:1010D0007A00826080937A0080917A0081608093A8
:1010E0007A0080917A00806880937A001092C10023
:1010F000E0917102F091720282E08083E0916D02D2
:10110000F0916E021082E0916F02F09170028FEC0C
:10111000808310927902E0917502F091760286E068
:101120008083E0917302F0917402808180618083FA
:10113000E0917302F0917402808188608083E09175
:101140007302F0917402808180688083E091730261
:10115000F091740280818F7D8083109256021092EC
:1011600057021092E701109209020E94870280E55F
:1011700091E09093E5018093E40181E591E0909303
:10118000E3018093E20184E00E94EC0380E00E948E
:1011900089046CE371E08AE093E00E949D0481E0A1
:1011A0000E9489046CE471E08AE093E00E949D044F
:1011B00060ED77E080E090E00E94170181E080938D
:1011C000E60188E6809308021092E7011092090276
:1011D00064E98EEF92E00E941603C091090281E05B
:1011E000C13208F099C00E94F2006B017C0180912D
:1011F000300281116BC082E08093300281E08093E5
:101200002F028FEF80932E0210922D02C0932C029A
:10121000E8EEF1E0AAE0B2E080E0C8138EC01092E0
:101220002B0280912B02806D80932B0280912A02E9
:10123000813009F086C010922A020E94F2006B01F0
:101240007C0180912B028093BB00809132029091AF
:101250003302A0913402B0913502892B8A2B8B2B5B
:10126000A1F00E94F200009132021091330220910D
:101270003402309135026C197D098E099F090617D9
:1012800017072807390708F442C08091BC0083FD86
:10129000D8CF85EC8093BC000E94F2006B017C01EA
:1012A00080913002823009F44EC080912E028F3F2F
:1012B00009F46BC080912E02803209F468C08091DD
:1012C0002E02803309F465C084E026C0809132028A
:1012D00090913302A0913402B0913502892B8A2B70
:1012E0008B2B09F484CF0E94F200009132021091FE
:1012F000330220913402309135026C197D098E0938
:101300009F09061717072807390708F070CF809143
:1013100031020E94A50285E01092E70110920902B5
:101320001092E6018823B9F10E94E4036BE571E0B5
:101330008AE093E00E949D04FFCF91919D938F5F7F
:101340006CCF85EEA7CF8091320290913302A091AD
:101350003402B0913502892B8A2B8B2B09F4A0CF54
:101360000E94F20000913202109133022091340267
:10137000309135026C197D098E099F0906171707F0
:101380002807390708F08CCFC2CF80E0C5CF82E0B4
:10139000C3CF83E0C1CF0E94E40369E671E08AE035
:1013A00093E00E949D0467E771E081E692E00E946D
:1013B0009D0460E871E081E692E00E949D04C0E037
:1013C000D0E011E00FEFE2E0FE2E65EEE62E75ECC8
:1013D000D72E55E0A52EB12C0E94F2002B013C0126
:1013E00080913002811161C01093300210932F025E
:1013F00000932E0210922D02F0922C0210932B02D9
:1014000080912B02806D80932B0280912A02813083
:1014100009F029C110922A020E94F2002B013C011E
:1014200080912B028093BB00809132029091330215
:10143000A0913402B0913502892B8A2B8B2BA1F01D
:101440000E94F20020913202309133024091340226
:1014500050913502641975098609970926173707CF
:101460004807590708F442C08091BC0083FDD8CFDB
:10147000D092BC000E94F2002B013C01809130020E
:10148000813009F4F3C080912D02833008F010C13F
:1014900080912D02AAE0B2E0E6E3F2E090E0981736
:1014A00051F12D9121939F5FFACF8091320290915B
:1014B0003302A0913402B0913502892B8A2B8B2BF9
:1014C00009F48ECF0E94F200209132023091330253
:1014D00040913402509135026419750986099709C3
:1014E000261737074807590708F07ACF809131024D
:1014F0000E94A50280E0109256028093570283302A
:1015000009F0D8C08EEF92E00E94D602882E8EEFAE
:1015100092E00E94D602982E8EEF92E00E94D602B0
:10152000282F87FDC7C0692D70E090E080E0982FDC
:10153000872F762F66272C7F622B912CB12CA12C24
:101540005401992488248824992423E0A222BB24CE
:10155000682979298A299B2981FF02C08C6F9F6F96
:101560000E94860C2FE632E143E85FE30E943B0DC8
:1015700020E030E040E057E30E943B0D2B013C01AE
:1015800021EA3DE24BE35FE30E94710B4B015C01FA
:1015900020E030E0A9010E94360D18160CF099C029
:1015A00024EF3DEF44EB5FE3C501B4010E94E30B80
:1015B00029E23CED4EE852E40E943B0D9B01AC0158
:1015C0000E94720B4B015C0122E0BC01A40181E688
:1015D00092E00E94F80460E871E081E692E00E94E7
:1015E0009D040E94E40380E00E94890463E871E0A6
:1015F0008AE093E00E949D0481E00E94890421E03A
:10160000B501A4018AE093E00E94F8046FE871E05C
:101610008AE093E00E949D0482E00E94890466E9CA
:1016200071E08AE093E00E949D0423E0B301A201EF
:101630008AE093E00E94F8046BE971E08AE093E0AD
:101640000E949D0468EE73E080E090E00E94170124
:10165000209709F4BECE0E94BC01882309F4B5CEC0
:101660000E940000B2CEE092BC0004CF8091320212
:1016700090913302A0913402B0913502892B8A2BCC
:101680008B2B09F4FBCE0E94F200209132023091A4
:10169000330240913402509135026419750986096C
:1016A0009709261737074807590708F0E7CE1ECFD6
:1016B00083E0F0CE6FE070E080E090E00E941701E0
:1016C00081E0A81AB10809F087CE60E070E0CB0194
:1016D00047CFC501B401905824EF3DEF44EB5FE3E1
:1016E00065CF5058BB27AA270E94890B0C94FC0C8D
:1016F0000E94EE0C38F00E94F50C20F039F49F3F68
:1017000019F426F40C94EB0C0EF4E095E7FB0C9422
:10171000E50CE92F0E940D0D58F3BA176207730705
:101720008407950720F079F4A6F50C942F0D0EF49C
:10173000E0950B2EBA2FA02D0B01B90190010C01E1
:10174000CA01A0011124FF27591B99F0593F50F4F9
:10175000503E68F11A16F040A22F232F342F442751
:10176000585FF3CF469537952795A795F040539549
:10177000C9F77EF41F16BA0B620B730B840BBAF019
:101780009150A1F0FF0FBB1F661F771F881FC2F784
:101790000EC0BA0F621F731F841F48F48795779598
:1017A0006795B795F7959E3F08F0B0CF9395880F52
:1017B00008F09927EE0F9795879508950E94C10C20
:1017C00008F481E008950E94F70B0C94FC0C0E9431
:1017D000F50C58F00E94EE0C40F029F45F3F29F020
:1017E0000C94E50C51110C94300D0C94EB0C0E94F0
:1017F0000D0D68F39923B1F3552391F3951B550B08
:10180000BB27AA2762177307840738F09F5F5F4FD3
:10181000220F331F441FAA1FA9F335D00E2E3AF012
:10182000E0E832D091505040E695001CCAF72BD02A
:10183000FE2F29D0660F771F881FBB1F261737077B
:101840004807AB07B0E809F0BB0B802DBF01FF27AD
:1018500093585F4F3AF09E3F510578F00C94E50C99
:101860000C94300D5F3FE4F3983ED4F38695779562
:101870006795B795F7959F5FC9F7880F911D969566
:10188000879597F90895E1E0660F771F881FBB1FC2
:10189000621773078407BA0720F0621B730B840B6F
:1018A000BA0BEE1F88F7E09508950E94150D88F099
:1018B0009F5798F0B92F9927B751B0F0E1F0660F14
:1018C000771F881F991F1AF0BA95C9F714C0B13055
:1018D00091F00E942F0DB1E008950C942F0D672F09
:1018E000782F8827B85F39F0B93FCCF38695779584
:1018F0006795B395D9F73EF490958095709561956D
:101900007F4F8F4F9F4F0895E89409C097FB3EF497
:1019100090958095709561957F4F8F4F9F4F99233C
:10192000A9F0F92F96E9BB279395F69587957795BA
:101930006795B795F111F8CFFAF4BB0F11F460FF7A
:101940001BC06F5F7F4F8F4F9F4F16C0882311F0D2
:1019500096E911C0772321F09EE8872F762F05C0E6
:10196000662371F096E8862F70E060E02AF09A9581
:10197000660F771F881FDAF7880F9695879597F976
:101980000895990F0008550FAA0BE0E8FEEF161610
:101990001706E807F907C0F012161306E407F50763
:1019A00098F0621B730B840B950B39F40A2661F0D7
:1019B000232B242B252B21F408950A2609F4A1407A
:1019C000A6958FEF811D811D089597F99F6780E887
:1019D00070E060E008959FEF80EC089500240A9481
:1019E0001616170618060906089500240A941216FA
:1019F0001306140605060895092E0394000C11F42D
:101A0000882352F0BB0F40F4BF2B11F460FF04C0D9
:101A10006F5F7F4F8F4F9F4F089557FD9058440F32
:101A2000551F59F05F3F71F04795880F97FB991F3D
:101A300061F09F3F79F087950895121613061406FA
:101A4000551FF2CF4695F1DF08C016161706180687
:101A5000991FF1CF86957105610508940895E89462
:101A6000BB2766277727CB0197F908950E94C10C01
:101A700008F48FEF08950E944E0D0C94FC0C0E9408
:101A8000EE0C38F00E94F50C20F0952311F00C9428
:101A9000E50C0C94EB0C11240C94300D0E940D0DF0
:101AA00070F3959FC1F3950F50E0551F629FF001B1
:101AB000729FBB27F00DB11D639FAA27F00DB11DCA
:101AC000AA1F649F6627B00DA11D661F829F222753
:101AD000B00DA11D621F739FB00DA11D621F839FDA
:101AE000A00D611D221F749F3327A00D611D231FB0
:101AF000849F600D211D822F762F6A2F11249F57FE
:101B000050409AF0F1F088234AF0EE0FFF1FBB1F00
:101B1000661F771F881F91505040A9F79E3F5105BF
:101B200080F00C94E50C0C94300D5F3FE4F3983E8C
:101B3000D4F3869577956795B795F795E7959F5F69
:101B4000C1F7FE2B880F911D9695879597F90895FB
:101B50000E94C10C880B990B0895A1E21A2EAA1BB2
:101B6000BB1BFD010DC0AA1FBB1FEE1FFF1FA2174D
:101B7000B307E407F50720F0A21BB30BE40BF50B4A
:101B8000661F771F881F991F1A9469F760957095D3
:101B9000809590959B01AC01BD01CF010895EE0F9A
:0E1BA000FF1F0590F491E02D0994F894FFCFFB
:101BAE0000000000F20152017F013F02B0018E01E0
:101BBE00A201000000001603E9024503C602490116
:101BCE00D602C702000000009704520145035F02CF
:101BDE006E616E00696E66006F7666004D656469B3
:101BEE00646F722031323056204143004D435033E2
:101BFE003432312031382D626974004552524F52C1
:101C0E00204D4350333432310053697374656D6126
:101C1E00204C6973746F00494E49434941444F004B
:101C2E000D0A0054656E73696F6E2041433A0020B1
:0E1C3E005620524D53004144433A00560000D8
:00000001FF
